:0400000029EF05F0EF
:08000800046ED8CF05F0E0CF33
:1000100006F00001E9CF0CF0EACF07F0E1CF08F0DD
:10002000E2CF09F0D9CF0AF0DACF0BF0F3CF12F01C
:10003000F4CF13F0FACF14F0F5CF15F0F6CF16F099
:10004000F7CF17F000C00EF001C00FF002C010F0A3
:1000500003C011F0F2A630EF00F0F2B057EF00F05D
:100060000EC000F00FC001F010C002F011C003F08C
:100070000CC0E9FF07C0EAFF078E08C0E1FF09C016
:10008000E2FF0AC0D9FF0BC0DAFF12C0F3FF13C0B2
:10009000F4FF14C0FAFF15C0F5FF16C0F6FF17C035
:1000A000F7FF045006C0E0FF05C0D8FF100081CF65
:1000B00026F101012651300B006E0038276F0F0E1C
:1000C0002717275128192B6F2B530FE02B510308AB
:1000D0000CE0D89028352719020B04E00001802B92
:1000E00003D0010100018007010127C128F1265139
:1000F000C00B006E0038296F29332933030E2917EE
:1001000029512A192C6F2C530FE02C5103080CE0B5
:10011000D8902A352919020B04E00001810703D089
:1001200001010001812B010129C12AF1F290000196
:1001300030EF00F0800ED8A202D001014B1B01016C
:10014000506B516B47C14FF14B514F1B4651D8B4C7
:10015000DFD04E6F006E4A51D8B4E3D04E5FD8B4B2
:1001600083D03EE34BC154F1548F4CC153F14DC188
:1001700052F1516BD89054335333523351334E2F85
:10018000F8D74FAF03D05081E0D050914E915089B5
:10019000010EEA6E490EE96EEBD050994FBF0AD0BE
:1001A0004EA113D05433533352335133002AD8B4B1
:1001B000C7D00BD054BF0CD0D890513752375337DB
:1001C00054370006D8B4BCD0F5D7508D6DD0509DB3
:1001D00047C14FF147AF02D0548FABD0549FA9D045
:1001E0004AC14EF14AC100F046514E5F47C154F139
:1001F000548F48C153F149C152F1516BD8905433D7
:100200005333523351334E2FF8D74FAF03D050836F
:100210009CD050934E91508B010EEA6E4D0EE96EBC
:10022000A7D0509B4FBF0AD04EA113D054335333A5
:1002300052335133002AD8B483D00BD054BF0CD0E2
:10024000D89051375237533754370006D8B478D046
:10025000F5D7508F29D0509F4BC14FF14BAF02D0F3
:10026000548F67D0549F65D04BC154F1548F4CC10B
:1002700053F14DC152F14FAF04D0549F508565D01A
:100280005095516B4E91010EEA6E490EE96E70D099
:100290004FBF1CD047C14FF14EA106D0543353334A
:1002A00052335133002A4CE051AF0BD0522B09E1AD
:1002B000532B07E1542B05E1543353335233002AB7
:1002C0003FE050BD84D750BFC6D71CD0800E541B12
:1002D00054AF04D03AD04BC14FF10AD047C14FF1CF
:1002E000545306E1535304E1525302E1006A21D012
:1002F00054BF08D0D8905137523753375437002E57
:10030000F7D71ED04FAF02D0548F13D0549F11D0C7
:100310004AC100F04BC154F14CC153F14DC152F1EF
:1003200008D046C100F047C154F148C153F149C15A
:1003300052F154C101F053C102F052C103F034D064
:10034000006A016A026A036A2FD0516B521F531F61
:10035000541F511F512B05E1522B03E1532B01E197
:10036000542B50B112D750B354D750B589D7B3D707
:10037000EF50522705E3532B03E1542BD8B44E81A1
:10038000ED52EF50532703E3542BD8B44E81ED5276
:10039000EF50EFBE01D0800A5427D8B04E8150B93B
:1003A000FCD650BB3ED774D7000112000101465164
:1003B000D8B4A5D0526F4A51D8B4A1D0525F05E34A
:1003C0007F0E5227D8B09BD006D0810E525FD8A0A6
:1003D00096D0D8B494D052C100F0016A026A036A80
:1003E000516B47C150F1508F48C14FF149C14EF197
:1003F000190E526F4D514E5F0DE2010E4F5F0AE232
:10040000505F08E2515F06E2512B502B4F2B4D51AC
:100410004E2728D04C514F5F12E2010E505F0FE281
:10042000515F0DE2512B502B4C514F274D514E2710
:1004300019E34F2B17E1502B15E1512B13D04B51E2
:100440008009505F0EE2010E515F0BE2512B4B51C0
:10045000800950274C514F27E9E3502BE7E1512BFE
:10046000E5D70380522F01D00BD0D8904E374F37AD
:1004700050375137D8900336023601365337BAD742
:1004800053A106D0D890013202320332533302D046
:10049000000635E053BF1ED0D8904E374F37503747
:1004A00051374D514E5F07E2010E4F5F04E2505F3E
:1004B00002E2515F1AE34C514F5F05E2010E505FBB
:1004C00002E2515F12E34B518009505F03E2010EDB
:1004D000515F0BE3032A09E1022A07E1012A05E142
:1004E000002A0DE001320232033247C152F14B5172
:1004F000521B52AF02D0018E06D0019E04D0006A7A
:10050000016A026A036A0001120001014A51D8B46B
:1005100071D0006E4E51D8B46DD0002604E3810E28
:10052000002668E204D07F0E005E64E363E04BC106
:1005300052F14F51521B4B8F4F8F4D515103F4CFFE
:1005400054F14C515003F4CF03F0F3CF53F1510366
:10055000F3505427F4505323000E03224D515003FF
:10056000F3505427F4505323000E026A0322022250
:100570004B515103F3505327F4500322000E022233
:100580004B515003F3500326F4500222000E016A2F
:1005900001224D514F03F3505327F4500322000E14
:1005A000022201224C514F03F3500326F450022241
:1005B000000E01224B514F03F3500226F45001224A
:1005C000002A01BE05D05337033602360136000635
:1005D000000E53AF0AD0032A02220122015005E186
:1005E000025003E1035001E1002A52BF018E52AFD5
:1005F000019E04D0006A016A026A036A00011200C7
:10060000080E016E050E006E002EFED78A929392A0
:10061000060E006E002EFED7010144378A90D8B036
:100620009380D8A09390938281A2FED7012E01D00F
:1006300002D00001E7D7050E006E002EFED78A9289
:10064000939200009380060E006E002EFED7060ED9
:10065000006E002EFED7938281A2FED7016A060E9D
:10066000006E002EFED781B001808A9293928A900C
:100670009390000112009380050E006E002EFED7AD
:100680009382060E006E002EFED78A909390050E80
:10069000006E002EFED78A929392D00E0101446F15
:1006A0000001AEDF42C144F1ABDF43C144F1A8DF3A
:1006B00093900000938281A2FED7050E006E002E5B
:1006C000FED700D000009380050E006E002EFED7EE
:1006D0001200010EEA6E420EE96EEF500DE0060EBA
:1006E000016E006A002EFED7012EFBD77B0E006E36
:1006F000002EFED7EF2EF3D712006B0E0101426FD2
:10070000800E436F0001B7DF640E0101426F0001EC
:10071000E0DF6B0E0101426F436B0001ACDF640E42
:100720000101426F0001D5DF1A0E0101426F010E77
:10073000436F0001A0DF0A0E0101426F0001C9DF13
:100740001B0E0101426F436B000195DFFBEF06F0CA
:10075000080E0101456F00C046F19380060E006E41
:10076000002EFED7938281A2FED781B0D88081A0CF
:10077000D8900136050E006E002EFED793928A9215
:10078000452FEBD79380060E006E002EFED78A9081
:100790004651D8A493900000938281A2FED7050E03
:1007A000006E002EFED78A929392060E006E002EE7
:1007B000FED78A909390000113EF04F09380050E0A
:1007C000006E002EFED79382060E006E002EFED71E
:1007D0008A909390050E006E002EFED78A92939217
:1007E000D00E0101446F00010BDF42C144F108DF6C
:1007F0009380050E006E002EFED79382060E006ECB
:10080000002EFED781A2FED78A909390050E006E2F
:10081000002EFED78A929392D10E0101446F0001FF
:10082000EFDE006A95D701C043F1939000009382F8
:1008300081A2FED7050E006E002EFED700D000006C
:100840009380050E006E002EFED7036A010143C19E
:1008500001F003C002F0000112003B0E0101426FE3
:100860000001ACDF01C02DF13C0E0101426F00011F
:10087000A5DF01C02EF11CEF07F0450E0101426F0C
:1008800000019CDF01C033F1460E0101426F0001FF
:1008900095DF01C034F11DEF07F00101426B928238
:1008A00080B201D04281928480B401D0428392868A
:1008B00080B601D0428542C101F000011EEF07F071
:1008C0008E0E006E45C101F044C102F0036A01AE14
:1008D00005D0011E021E022A01E1012A015209E18E
:1008E00002C001F0026A080E005E015202E1006AD5
:1008F0000ED0D89001BE04D0023601360006F9D7DA
:10090000010145AF02D0000102D0019E000112009A
:100910004BC152F101014F51521B52AF05D0D89437
:10092000D8904BBFD8802FD04BC152F14EC153F15C
:100930004A51535F06E052AF26D0D850010AD86E14
:1009400022D04FC153F14B51535F06E052AF1BD041
:10095000D850010AD86E17D050C153F14C51535F93
:1009600006E052AF10D0D850010AD86E0CD051C159
:1009700053F14D51535F06E052AF05D0D850010AF4
:10098000D86E01D0D890000112008E0E006E0101C9
:100990004A51005E4BC102F04CC101F0028E005280
:1009A00009E0D890025202E1015204E00232013221
:1009B000002EF7D74BAF05D0011E021E012AD8B476
:1009C000022A00011200AFC04DF1AEC04CF1ADC023
:1009D0004BF1ACC04AF145C151F144C150F143C1A2
:1009E0004FF142C14EF191DD03C049F102C048F11F
:1009F00001C047F100C046F146C100F047C101F017
:100A000048C102F049C103F0019E49C14DF148C1FE
:100A10004CF101C04BF146C14AF1B7DF01C07FF094
:100A200049C14DF148C14CF147C14BF146C14AF1B2
:100A30000101516B506B4F6B4E6B000169DF02E39C
:100A4000800E7F277FC001F012009EA8FED7AD6EFA
:100A50001200F86AD09E078EB8862A0EAF6E000E7E
:100A6000B06EA60EAC6E900EAB6E0A0E226ED70E56
:100A7000216E230E206E780E1F6E266A256A400EA8
:100A8000246E820E236EDC0E2A6E0F0E296E490E26
:100A9000286E800E276E7B0E2E6E140E2D6E080EA5
:100AA0002C6E840E2B6E326A316A0C0E306E840E00
:100AB0002F6E140E366EAE0E356E070E346E7E0E31
:100AC000336E3A6A396A1E0E386E860E376E3E6A8B
:100AD0003D6A3C6A800E3B6E426A416A406A820E01
:100AE0003F6E466A456A446A800E436E4A6A496AA6
:100AF000486A820E476E4E6A4D6A700E4C6E840EC6
:100B00004B6E526A516A506A7E0E4F6E566A556A33
:100B1000700E546E830E536E5A6A596A700E586E78
:100B2000820E576ECD0E5E6ECC0E5D6E8C0E5C6EC0
:100B30007C0E5B6EB00E626F720E616F880E606F1E
:100B40007E0E5F6E850E666FEB0E656F250E646F11
:100B5000820E636F6A6B696B200E686F830E676F1E
:100B6000360E6E6FFA0E6D6F0E0E6C6F790E6B6F28
:100B7000726B716B706B710E6F6F2D0E766F230E33
:100B8000756F7A0E746F770E736F420E7A6F600E08
:100B9000796F650E786F770E776FD8820101496B98
:100BA000486B476B7F0E466F7AC04DF179C04CF1B0
:100BB00078C04BF177C04AF100019AEC00F003C015
:100BC0007EF002C07DF001C07CF000C07BF05EC012
:100BD00093F05DC092F05CC091F05BC090F0976BB9
:100BE000966B956B946B9B6B9A6B996B986B9F6BE9
:100BF0009E6B9D6B9C6BA36BA26BA16BA06B0101A9
:100C0000496B486B476B7F0E466F22C04DF121C088
:100C10004CF120C04BF11FC04AF10001D6EC01F0AD
:100C200003C0A7F002C0A6F001C0A5F000C0A4F068
:100C300001014D6B4C6B4B6B800E4A6F26C051F11E
:100C400025C050F124C04FF123C04EF100015DDCFE
:100C500003C045F102C044F101C043F100C042F1BC
:100C600003C04DF102C04CF101C04BF100C04AF18C
:100C70002EC051F12DC050F12CC04FF12BC04EF1C0
:100C800044DC2AC049F129C048F128C047F127C0F7
:100C900046F103C04DF102C04CF101C04BF100C060
:100CA0004AF1D6EC01F003C0ABF002C0AAF001C0DB
:100CB000A9F000C0A8F00101496B486B7E0E476F98
:100CC000850E466F66C04DF165C04CF164C04BF1B6
:100CD00063C04AF10001D6EC01F003C0AFF002C0DE
:100CE000AEF001C0ADF000C0ACF0B36BB26BB16B55
:100CF000B06BB76BB66BB56BB46BBB6BBA6BB96BE8
:100D0000B86BBF6BBE6BBD6BBC6BC36BC26BC16B97
:100D1000C06BCB6BCA6BC96BC86BD36BD26BD16B1F
:100D2000D06BDB6BDA6BD96BD86BE36BE26BE16B8F
:100D3000E06BE76BE66BE56BE46BEB6BEA6BE96B27
:100D4000E86BEF6BEE6BED6BEC6BF36BF26BF16BD7
:100D50007F0EF06FF76BF66BF56BF46FF991F9930B
:100D6000F995F997FD6BFC6BFB6BFA6B0101016B5D
:100D7000006B0001FF6BFE6B0101056B046B036BE5
:100D8000026B096B086B076B066B0D6B0C6B0B6BC7
:100D90000A6B116B106B0F6B0E6B156B146B136B77
:100DA000126B196B186B176B166B1D6B1C6B1B6B27
:100DB0001A6B216B206B1F6B1E6B226B236B246BDA
:100DC000256B266B276B286B296B2A6B2B6B2C6B87
:100DD000356B366B376B386B396B3A6B3B6B3C6BF7
:100DE0003D6BC150C00B0F09C16E070EB46E196A7E
:100DF0001A6A000182D4C70ED56ED66A0101276B2C
:100E0000286B7F0E0001806F0101296B2A6B0001A6
:100E1000816F000E0609CA6EFE0ECB6E94948B9401
:100E20000C0EBD6EB76AB66A94928B92BA6EF28659
:100E30009D8AC00EF21211D520D52FD501C0F8F031
:100E4000036A01012D51E8BE03060001846F03C04F
:100E500085F084C003F0000E846F03C085F0036A40
:100E600001012E51E8BE03060001842703508523AB
:100E7000036A01013351E8BE03060001866F03C017
:100E800087F086C003F0000E866F03C087F0036A08
:100E900001013451E8BE0306000186270350872371
:100EA000F851040B006E003200323F0E0016F9912B
:100EB00000B0F981F851020B006ED8900032F9951C
:100EC00000B0F985F851010BF993E8B0F9837F0E72
:100ED000D8808055826F7F0ED8808155836F7F0EBA
:100EE000806F816F0101456B82C044F144BF4507AB
:100EF0000001E6DC03C04DF102C04CF101C04BF132
:100F000000C04AF1ABC051F1AAC050F1A9C04FF1E5
:100F1000A8C04EF185EC02F003C045F102C044F1D7
:100F200001C043F100C042F103C04DF102C04CF1D9
:100F300001C04BF100C04AF1A7C051F1A6C050F169
:100F4000A5C04FF1A4C04EF185EC02F003C0BBF088
:100F500002C0BAF001C0B9F000C0B8F00101456BA1
:100F600083C044F144BF45070001AADC03C04DF132
:100F700002C04CF101C04BF100C04AF1ABC051F1CD
:100F8000AAC050F1A9C04FF1A8C04EF185EC02F003
:100F900003C045F102C044F101C043F100C042F179
:100FA00003C04DF102C04CF101C04BF100C04AF149
:100FB000A7C051F1A6C050F1A5C04FF1A4C04EF199
:100FC00085EC02F003C0BFF002C0BEF001C0BDF06E
:100FD00000C0BCF0841D0101426F0001851D0101AC
:100FE000436F422BD8B4432B43C145F142C144F176
:100FF000000166DC03C04DF102C04CF101C04BF1B1
:1010000000C04AF172C051F171C050F170C04FF18F
:101010006FC04EF185EC02F003C08BF002C08AF085
:1010200001C089F000C088F087C045F186C044F156
:1010300047DC03C04DF102C04CF101C04BF100C0D0
:101040004AF176C051F175C050F174C04FF173C0D0
:101050004EF185EC02F003C08FF002C08EF001C0AB
:101060008DF000C08CF08BC04DF18AC04CF189C06E
:101070004BF188C04AF10101516B506B340E4F6F38
:10108000850E4E6F000185EC02F003C09BF002C09C
:101090009AF001C099F000C098F08FC04DF18EC059
:1010A0004CF18DC04BF18CC04AF122C051F121C0EE
:1010B00050F120C04FF11FC04EF185EC02F0D892E4
:1010C000A3C049F1A2C048F1A1C047F1A0C046F1B8
:1010D00003C04DF102C04CF101C04BF100C04AF118
:1010E0009AEC00F07EC04DF17DC04CF17CC04BF11C
:1010F0007BC04AF103C051F102C050F101C04FF171
:1011000000C04EF185EC02F003C045F102C044F18D
:1011100001C043F100C042F17AC04DF179C04CF1F9
:1011200078C04BF177C04AF19BC051F19AC050F1A1
:1011300099C04FF198C04EF185EC02F0D89245C1AC
:1011400049F144C148F143C147F142C146F103C0EE
:101150004DF102C04CF101C04BF100C04AF19AECD4
:1011600000F003C09FF002C09EF001C09DF000C0DF
:101170009CF09FC0A3F09EC0A2F09DC0A1F09CC0B7
:10118000A0F09FC04DF19EC04CF19DC04BF19CC0A2
:101190004AF16EC051F16DC050F16CC04FF16BC09F
:1011A0004EF185EC02F003C097F002C096F001C04A
:1011B00095F000C094F0BBC049F1BAC048F1B9C085
:1011C00047F1B8C046F1F7C04DF1F6C04CF1F5C09B
:1011D0004BF1F4C04AF1D6EC01F003C045F102C076
:1011E00044F101C043F100C042F1BFC049F1BEC0AB
:1011F00048F1BDC047F1BCC046F1F3C04DF1F2C0AB
:101200004CF1F1C04BF1F0C04AF1D6EC01F0D892AC
:1012100045C149F144C148F143C147F142C146F1DA
:1012200003C04DF102C04CF101C04BF100C04AF1C6
:101230009AEC00F003C045F102C044F101C043F153
:1012400000C042F103C049F102C048F101C047F1BA
:1012500000C046F101014D6B4C6B4B6B800E4A6F29
:101260000001D6EC01F003C0C3F002C0C2F001C01F
:10127000C1F000C0C0F0D7C0DBF0D6C0DAF0D5C0F6
:10128000D9F0D4C0D8F0D88293C049F192C048F1C7
:1012900091C047F190C046F197C04DF196C04CF116
:1012A00095C04BF194C04AF19AEC00F003C0D7F01E
:1012B00002C0D6F001C0D5F000C0D4F0DFC0E3F02A
:1012C000DEC0E2F0DDC0E1F0DCC0E0F0D8825AC060
:1012D00049F159C048F158C047F157C046F1C3C061
:1012E0004DF1C2C04CF1C1C04BF1C0C04AF19AEC03
:1012F00000F003C0DFF002C0DEF001C0DDF000C08E
:10130000DCF04EC04DF14DC04CF14CC04BF14BC028
:101310004AF1DFC051F1DEC050F1DDC04FF1DCC059
:101320004EF185EC02F003C015F102C014F101C0CA
:1013300013F100C012F1D882DFC049F1DEC048F1DC
:10134000DDC047F1DCC046F1E3C04DF1E2C04CF135
:10135000E1C04BF1E0C04AF19AEC00F052C04DF10F
:1013600051C04CF150C04BF14FC04AF103C051F194
:1013700002C050F101C04FF100C04EF185EC02F007
:1013800003C045F102C044F101C043F100C042F185
:1013900003C04DF102C04CF101C04BF100C04AF155
:1013A000A7C051F1A6C050F1A5C04FF1A4C04EF1A5
:1013B00085EC02F003C019F102C018F101C017F169
:1013C00000C016F11DC14DF11CC14CF11BC14BF108
:1013D0001AC14AF15EC051F15DC050F15CC04FF1DD
:1013E0005BC04EF188EC04F05BE362C04DF161C07C
:1013F0004CF160C04BF15FC04AF11DC151F11CC1FD
:1014000050F11BC14FF11AC14EF188EC04F048E3D2
:1014100056C04DF155C04CF154C04BF153C04AF188
:1014200022C051F121C050F120C04FF11FC04EF138
:1014300085EC02F003C045F102C044F101C043F164
:1014400000C042F103C04DF102C04CF101C04BF1AC
:1014500000C04AF1DFC051F1DEC050F1DDC04FF1F4
:10146000DCC04EF185EC02F0D8921DC149F11CC1DF
:1014700048F11BC147F11AC146F103C04DF102C04A
:101480004CF101C04BF100C04AF19AEC00F003C0EE
:101490001DF102C01CF101C01BF100C01AF15ED0A9
:1014A0005EC04DF15DC04CF15CC04BF15BC04AF1D8
:1014B0001DC151F11CC150F11BC14FF11AC14EF1B8
:1014C00088EC04F001E21BE1330E01014D6F4C6F1B
:1014D000730E4B6F7E0E4A6F5EC051F15DC050F1CE
:1014E0005CC04FF15BC04EF1000185EC02F003C01F
:1014F0001DF102C01CF101C01BF100C01AF11DC199
:101500004DF11CC14CF11BC14BF11AC14AF162C033
:1015100051F161C050F160C04FF15FC04EF188ECF5
:1015200004F001E21BE1330E01014D6F4C6FF30E2D
:101530004B6F7E0E4A6F62C051F161C050F160C0C6
:101540004FF15FC04EF1000185EC02F003C01DF1C8
:1015500002C01CF101C01BF100C01AF1D89215C1E4
:1015600049F114C148F113C147F112C146F119C143
:101570004DF118C14CF117C14BF116C14AF19AEC6B
:1015800000F003C045F102C044F101C043F100C0C6
:1015900042F1D89203C049F102C048F101C047F1BD
:1015A00000C046F11DC14DF11CC14CF11BC14BF1F6
:1015B0001AC14AF19AEC00F003C093F002C092F015
:1015C00001C091F000C090F05EC04DF15DC04CF1E3
:1015D0005CC04BF15BC04AF193C051F192C050F135
:1015E00091C04FF190C04EF188EC04F008E35EC06A
:1015F00093F05DC092F05CC091F05BC090F093C03E
:101600004DF192C04CF191C04BF190C04AF162C0D3
:1016100051F161C050F160C04FF15FC04EF188ECF4
:1016200004F008E362C093F061C092F060C091F0F2
:101630005FC090F0F9A122D0F9B320D0F9A50DD068
:10164000330EF36FF26FF16F7E0EF06F660EF76F71
:10165000F66FF56F7F0EF46F10D0CD0EF36FCC0EDA
:10166000F26F4C0EF16F7D0EF06FCD0EF76FCC0E5A
:10167000F66F0C0EF56F800EF46F2DD0F9B122D0FD
:10168000F9A320D0F9A50DD0660EF36FF26FF16FBC
:101690007F0EF06F330EF76FF66FF56F7E0EF46FFF
:1016A00010D0CD0EF36FCC0EF26F0C0EF16F800EDA
:1016B000F06FCD0EF76FCC0EF66F4C0EF56F7D0E02
:1016C000F46F09D0F36BF26BF16B7F0EF06FF76B79
:1016D000F66BF56BF46F32C04DF131C04CF130C098
:1016E0004BF12FC04AF1D7C051F1D6C050F1D5C04F
:1016F0004FF1D4C04EF185EC02F003C0FDF002C002
:10170000FCF001C0FBF000C0FAF0D882D7C049F16C
:10171000D6C048F1D5C047F1D4C046F1DBC04DF189
:10172000DAC04CF1D9C04BF1D8C04AF19AEC00F0C4
:1017300036C04DF135C04CF134C04BF133C04AF1E5
:1017400003C051F102C050F101C04FF100C04EF191
:1017500085EC02F003C045F102C044F101C043F141
:1017600000C042F103C04DF102C04CF101C04BF189
:1017700000C04AF1A7C051F1A6C050F1A5C04FF179
:10178000A4C04EF185EC02F003C001F102C000F1EB
:1017900001C0FFF000C0FEF021C14DF120C14CF1AD
:1017A0001FC14BF11EC14AF166C051F165C050F135
:1017B00064C04FF163C04EF188EC04F064E363C091
:1017C00000F06451800A016E65C002F066C003F04B
:1017D00066C04DF165C04CF1E8CF4BF163C04AF1F2
:1017E00021C151F120C150F11FC14FF11EC14EF175
:1017F00088EC04F048E33AC04DF139C04CF138C0F0
:101800004BF137C04AF122C051F121C050F120C044
:101810004FF11FC04EF185EC02F003C045F102C04C
:1018200044F101C043F100C042F103C04DF102C0D8
:101830004CF101C04BF100C04AF1D7C051F1D6C004
:1018400050F1D5C04FF1D4C04EF185EC02F0D892E2
:1018500021C149F120C148F11FC147F11EC146F124
:1018600003C04DF102C04CF101C04BF100C04AF180
:101870009AEC00F003C021F102C020F101C01FF179
:1018800000C01EF167D066C04DF165C04CF164C068
:101890004BF163C04AF121C151F120C150F11FC188
:1018A0004FF11EC14EF188EC04F001E21BE1330E52
:1018B00001014D6F4C6F730E4B6F7E0E4A6F66C009
:1018C00051F165C050F164C04FF163C04EF10001A9
:1018D00085EC02F003C021F102C020F101C01FF12C
:1018E00000C01EF163C000F06451800A016E65C043
:1018F00002F066C003F021C14DF120C14CF11FC1BF
:101900004BF11EC14AF166C051F165C050F1E8CFFC
:101910004FF163C04EF188EC04F001E21BE1330E9D
:1019200001014D6F4C6FF30E4B6F7E0E4A6F66C018
:1019300051F165C050F164C04FF163C04EF1000138
:1019400085EC02F003C021F102C020F101C01FF1BB
:1019500000C01EF1D892FDC049F1FCC048F1FBC0A7
:1019600047F1FAC046F101C14DF100C14CF1FFC091
:101970004BF1FEC04AF19AEC00F003C045F102C001
:1019800044F101C043F100C042F1D89203C049F1D3
:1019900002C048F101C047F100C046F121C14DF13C
:1019A00020C14CF11FC14BF11EC14AF19AEC00F06D
:1019B00003C0E7F002C0E6F001C0E5F000C0E4F0CB
:1019C0006AC04DF169C04CF168C04BF167C04AF183
:1019D000E7C051F1E6C050F1E5C04FF1E4C04EF16F
:1019E00088EC04F008E36AC0E7F069C0E6F068C07C
:1019F000E5F067C0E4F067C000F06851800A016E4E
:101A000069C002F06AC003F0E7C04DF1E6C04CF1D6
:101A1000E5C04BF1E4C04AF16AC051F169C050F130
:101A2000E8CF4FF167C04EF188EC04F009E367C0DE
:101A3000E4F06851800AE56F69C0E6F06AC0E7F03B
:101A4000F3C04DF1F2C04CF1F1C04BF1F0C04AF1DE
:101A5000E7C051F1E6C050F1E5C04FF1E4C04EF1EE
:101A600085EC02F003C0B7F002C0B6F001C0B5F0DB
:101A700000C0B4F0F7C04DF1F6C04CF1F5C04BF129
:101A8000F4C04AF1E7C051F1E6C050F1E5C04FF1B2
:101A9000E4C04EF185EC02F003C0B3F002C0B2F036
:101AA00001C0B1F000C0B0F0CFC0D3F0CEC0D2F0D2
:101AB000CDC0D1F0CCC0D0F0D882B7C049F1B6C00B
:101AC00048F1B5C047F1B4C046F1BFC04DF1BEC04A
:101AD0004CF1BDC04BF1BCC04AF19AEC00F003C020
:101AE000CFF002C0CEF001C0CDF000C0CCF03EC0BF
:101AF0004DF13DC04CF13CC04BF13BC04AF1CFC071
:101B000051F1CEC050F1CDC04FF1CCC04EF185ECBB
:101B100002F003C00DF102C00CF101C00BF100C0D6
:101B20000AF111C14DF110C14CF10FC14BF10EC1C1
:101B30004AF166C051F165C050F164C04FF163C015
:101B40004EF188EC04F064E363C000F06451800A55
:101B5000016E65C002F066C003F066C04DF165C05D
:101B60004CF1E8CF4BF163C04AF111C151F110C102
:101B700050F10FC14FF10EC14EF188EC04F048E373
:101B800042C04DF141C04CF140C04BF13FC04AF161
:101B900022C051F121C050F120C04FF11FC04EF1C1
:101BA00085EC02F003C045F102C044F101C043F1ED
:101BB00000C042F103C04DF102C04CF101C04BF135
:101BC00000C04AF1CFC051F1CEC050F1CDC04FF1AD
:101BD000CCC04EF185EC02F0D89211C149F110C190
:101BE00048F10FC147F10EC146F103C04DF102C0EB
:101BF0004CF101C04BF100C04AF19AEC00F003C077
:101C000011F102C010F101C00FF100C00EF167D058
:101C100066C04DF165C04CF164C04BF163C04AF140
:101C200011C151F110C150F10FC14FF10EC14EF170
:101C300088EC04F001E21BE1330E01014D6F4C6FA3
:101C4000730E4B6F7E0E4A6F66C051F165C050F146
:101C500064C04FF163C04EF1000185EC02F003C097
:101C600011F102C010F101C00FF100C00EF163C00C
:101C700000F06451800A016E65C002F066C003F096
:101C800011C14DF110C14CF10FC14BF10EC14AF120
:101C900066C051F165C050F1E8CF4FF163C04EF11D
:101CA00088EC04F001E21BE1330E01014D6F4C6F33
:101CB000F30E4B6F7E0E4A6F66C051F165C050F156
:101CC00064C04FF163C04EF1000185EC02F003C027
:101CD00011F102C010F101C00FF100C00EF1D89255
:101CE0000DC149F10CC148F10BC147F10AC146F1E0
:101CF00011C14DF110C14CF10FC14BF10EC14AF1B0
:101D00009AEC00F003C0EFF002C0EEF001C0EDF07D
:101D100000C0ECF066C04DF165C04CF164C04BF101
:101D200063C04AF1EFC051F1EEC050F1EDC04FF188
:101D3000ECC04EF188EC04F001E208E166C0EFF07F
:101D400065C0EEF064C0EDF063C0ECF063C000F07D
:101D50006451800A016E65C002F066C003F0EFC0F6
:101D60004DF1EEC04CF1EDC04BF1ECC04AF166C054
:101D700051F165C050F1E8CF4FF163C04EF188ECEE
:101D800004F001E209E163C0ECF06451800AED6FF8
:101D900065C0EEF066C0EFF0EFC045F1EEC044F173
:101DA000EDC043F1ECC042F1E3EC04F001C022F1DC
:101DB000C7C0CBF0C6C0CAF0C5C0C9F0C4C0C8F027
:101DC000D882B3C049F1B2C048F1B1C047F1B0C048
:101DD00046F1BBC04DF1BAC04CF1B9C04BF1B8C02F
:101DE0004AF19AEC00F003C0C7F002C0C6F001C08F
:101DF000C5F000C0C4F046C04DF145C04CF144C030
:101E00004BF143C04AF1C7C051F1C6C050F1C5C043
:101E10004FF1C4C04EF185EC02F003C005F102C0E1
:101E200004F101C003F100C002F109C14DF108C184
:101E30004CF107C14BF106C14AF166C051F165C0D2
:101E400050F164C04FF163C04EF188EC04F064E3DC
:101E500063C000F06451800A016E65C002F066C084
:101E600003F066C04DF165C04CF1E8CF4BF163C0A3
:101E70004AF109C151F108C150F107C14FF106C142
:101E80004EF188EC04F048E34AC04DF149C04CF1F2
:101E900048C04BF147C04AF122C051F121C050F176
:101EA00020C04FF11FC04EF185EC02F003C045F198
:101EB00002C044F101C043F100C042F103C04DF142
:101EC00002C04CF101C04BF100C04AF1C7C051F152
:101ED000C6C050F1C5C04FF1C4C04EF185EC02F050
:101EE000D89209C149F108C148F107C147F106C1BB
:101EF00046F103C04DF102C04CF101C04BF100C0EE
:101F00004AF19AEC00F003C009F102C008F101C0E7
:101F100007F100C006F167D066C04DF165C04CF115
:101F200064C04BF163C04AF109C151F108C150F1DD
:101F300007C14FF106C14EF188EC04F001E21BE14C
:101F4000330E01014D6F4C6F730E4B6F7E0E4A6F57
:101F500066C051F165C050F164C04FF163C04EF1ED
:101F6000000185EC02F003C009F102C008F101C0D4
:101F700007F100C006F163C000F06451800A016EF1
:101F800065C002F066C003F009C14DF108C14CF113
:101F900007C14BF106C14AF166C051F165C050F16D
:101FA000E8CF4FF163C04EF188EC04F001E21BE191
:101FB000330E01014D6F4C6FF30E4B6F7E0E4A6F67
:101FC00066C051F165C050F164C04FF163C04EF17D
:101FD000000185EC02F003C009F102C008F101C064
:101FE00007F100C006F1D89205C149F104C148F1DA
:101FF00003C147F102C146F109C14DF108C14CF1DD
:1020000007C14BF106C14AF19AEC00F003C0EBF0B6
:1020100002C0EAF001C0E9F000C0E8F066C04DF18E
:1020200065C04CF164C04BF163C04AF1EBC051F1A3
:10203000EAC050F1E9C04FF1E8C04EF188EC04F07D
:1020400001E208E166C0EBF065C0EAF064C0E9F0C7
:1020500063C0E8F063C000F06451800A016E65C09F
:1020600002F066C003F0EBC04DF1EAC04CF1E9C0EC
:102070004BF1E8C04AF166C051F165C050F1E8CFBC
:102080004FF163C04EF188EC04F001E209E163C056
:10209000E8F06451800AE96F65C0EAF066C0EBF0D1
:1020A000EBC045F1EAC044F1E9C043F1E8C042F1B8
:1020B000E3EC04F001C023F1010122517F080AE2A0
:1020C00096928D9296908D80800E225FD8902235C8
:1020D000256F07D096928D8296908D90D89022355C
:1020E000256F25C1BBFF23517F080AE295928C9290
:1020F00095908C80800E235FD8902335246F07D075
:1021000095928C8295908C90D8902335246F24C121
:10211000BEFF4D6B4C6B4B6B860E4A6F97C051F1F7
:1021200096C050F195C04FF194C04EF1000185EC7E
:1021300002F003C041F102C040F101C03FF100C014
:102140003EF141C14DF140C14CF13FC14BF13EC1A7
:102150004AF10101516B506B800E4F6F860E4E6F2E
:10216000000188EC04F004E3800E0101356F25D0F6
:1021700001014D6B4C6B7E0E4B6F850E4A6F41C15A
:1021800051F140C150F13FC14FF13EC14EF100014C
:1021900088EC04F005E37F0E0101356F0ED00001DD
:1021A00041C14DF140C14CF13FC14BF13EC14AF13B
:1021B000C5EC04F001C035F101014D6B4C6B4B6B6C
:1021C000860E4A6F93C051F192C050F191C04FF109
:1021D00090C04EF1000185EC02F003C041F102C055
:1021E00040F101C03FF100C03EF141C14DF140C19D
:1021F0004CF13FC14BF13EC14AF10101516B506BB3
:10220000800E4F6F860E4E6F000188EC04F004E3E1
:10221000800E0101366F25D001014D6B4C6B7E0E97
:102220004B6F850E4A6F41C151F140C150F13FC122
:102230004FF13EC14EF1000188EC04F005E37F0E42
:102240000101366F0ED0000141C14DF140C14CF18A
:102250003FC14BF13EC14AF1C5EC04F001C036F17B
:1022600001014D6B4C6B4C0E4B6F800E4A6FB7C02B
:1022700051F1B6C050F1B5C04FF1B4C04EF10001FC
:1022800085EC02F003C045F102C044F101C043F106
:1022900000C042F1D88203C049F102C048F101C038
:1022A00047F100C046F101014D6B4C6B4B6B7E0E4C
:1022B0004A6F00019AEC00F003C041F102C040F106
:1022C00001C03FF100C03EF141C14DF140C14CF1B0
:1022D0003FC14BF13EC14AF10101516B506B800E81
:1022E0004F6F860E4E6F000188EC04F004E3800E01
:1022F0000101376F25D001014D6B4C6B7E0E4B6F8A
:10230000850E4A6F41C151F140C150F13FC14FF1BB
:102310003EC14EF1000188EC04F005E37F0E01019F
:10232000376F0ED0000141C14DF140C14CF13FC1AA
:102330004BF13EC14AF1C5EC04F001C037F1010197
:102340004D6B4C6B4C0E4B6F800E4A6FBFC051F102
:10235000BEC050F1BDC04FF1BCC04EF1000185ECD4
:1023600002F003C045F102C044F101C043F100C0D6
:1023700042F1D88203C049F102C048F101C047F1DF
:1023800000C046F101014D6B4C6B4B6B7E0E4A6FEA
:1023900000019AEC00F003C041F102C040F101C01D
:1023A0003FF100C03EF141C14DF140C14CF13FC190
:1023B0004BF13EC14AF10101516B506B800E4F6FE2
:1023C000860E4E6F000188EC04F004E3800E0101DC
:1023D000386F25D001014D6B4C6B7E0E4B6F850E17
:1023E0004A6F41C151F140C150F13FC14FF13EC16F
:1023F0004EF1000188EC04F005E37F0E0101386F17
:102400000ED0000141C14DF140C14CF13FC14BF133
:102410003EC14AF1C5EC04F001C038F101014D6B39
:102420004C6B4C0E4B6F800E4A6FB3C051F1B2C073
:1024300050F1B1C04FF1B0C04EF1000185EC02F097
:1024400003C045F102C044F101C043F100C042F1B4
:10245000D88203C049F102C048F101C047F100C071
:1024600046F101014D6B4C6B4B6B7E0E4A6F0001C8
:102470009AEC00F003C041F102C040F101C03FF10D
:1024800000C03EF141C14DF140C14CF13FC14BF1A3
:102490003EC14AF10101516B506B800E4F6F860EA9
:1024A0004E6F000188EC04F004E3800E0101396FE7
:1024B00025D001014D6B4C6B7E0E4B6F850E4A6F24
:1024C00041C151F140C150F13FC14FF13EC14EF108
:1024D000000188EC04F005E37F0E0101396F0ED096
:1024E000000141C14DF140C14CF13FC14BF13EC132
:1024F0004AF1C5EC04F001C039F101014D6B4C6BA0
:102500004C0E4B6F800E4A6FBBC051F1BAC050F1F8
:10251000B9C04FF1B8C04EF1000185EC02F003C024
:1025200045F102C044F101C043F100C042F1D8823C
:1025300003C049F102C048F101C047F100C046F1B3
:1025400001014D6B4C6B4B6B7E0E4A6F00019AEC98
:1025500000F003C041F102C040F101C03FF100C0F2
:102560003EF141C14DF140C14CF13FC14BF13EC183
:102570004AF10101516B506B800E4F6F860E4E6F0A
:10258000000188EC04F004E3800E01013A6F25D0CD
:1025900001014D6B4C6B7E0E4B6F850E4A6F41C136
:1025A00051F140C150F13FC14FF13EC14EF1000128
:1025B00088EC04F005E37F0E01013A6F0ED00001B4
:1025C00041C14DF140C14CF13FC14BF13EC14AF117
:1025D000C5EC04F001C03AF101014D6B4C6B4C0E9F
:1025E0004B6F800E4A6FC3C051F1C2C050F1C1C0E1
:1025F0004FF1C0C04EF1000185EC02F003C045F17F
:1026000002C044F101C043F100C042F1D88203C0CE
:1026100049F102C048F101C047F100C046F1010193
:102620004D6B4C6B4B6B7E0E4A6F00019AEC00F0C9
:1026300003C041F102C040F101C03FF100C03EF1D2
:1026400041C14DF140C14CF13FC14BF13EC14AF196
:102650000101516B506B800E4F6F860E4E6F000163
:1026600088EC04F004E3800E01013B6F25D00101EA
:102670004D6B4C6B7E0E4B6F850E4A6F41C151F115
:1026800040C150F13FC14FF13EC14EF1000188EC15
:1026900004F005E37F0E01013B6F0ED0000141C144
:1026A0004DF140C14CF13FC14BF13EC14AF1C5EC87
:1026B00004F001C03BF101014D6B4C6B080E4B6FF8
:1026C000820E4A6FEFC051F1EEC050F1EDC04FF1F4
:1026D000ECC04EF1000185EC02F003C045F102C0F0
:1026E00044F101C043F100C042F1D88203C049F176
:1026F00002C048F101C047F100C046F101014D6B35
:102700004C6B4B6B7E0E4A6F00019AEC00F003C0DD
:1027100041F102C040F101C03FF100C03EF141C1B2
:102720004DF140C14CF13FC14BF13EC14AF10101B5
:10273000516B506B800E4F6F860E4E6F000188EC10
:1027400004F004E3800E01013C6F25D001014D6BC4
:102750004C6B7E0E4B6F850E4A6F41C151F140C1EB
:1027600050F13FC14FF13EC14EF1000188EC04F041
:1027700005E37F0E01013C6F0ED0000141C14DF118
:1027800040C14CF13FC14BF13EC14AF1C5EC04F0F0
:1027900001C03CF101014D6B4C6B080E4B6F820E7A
:1027A0004A6FEBC051F1EAC050F1E9C04FF1E8C007
:1027B0004EF1000185EC02F003C045F102C044F186
:1027C00001C043F100C042F1D88203C049F102C008
:1027D00048F101C047F100C046F101014D6B4C6B5F
:1027E0004B6B7E0E4A6F00019AEC00F003C041F182
:1027F00002C040F101C03FF100C03EF141C14DF1C6
:1028000040C14CF13FC14BF13EC14AF10101516B56
:10281000506B800E4F6F860E4E6F000188EC04F0F7
:1028200004E3800E01013D6F25D001014D6B4C6B1F
:102830007E0E4B6F850E4A6F41C151F140C150F180
:102840003FC14FF13EC14EF1000188EC04F005E3B9
:102850007F0E01013D6F0ED0000141C14DF140C11D
:102860004CF13FC14BF13EC14AF1C5EC04F001C04F
:102870003DF10101000E0001F9B7010E080DF35002
:10288000F827AA0E25EC05F001013551000125ECD1
:1028900005F001013751000125EC05F00101385127
:1028A000000125EC05F001013951000125EC05F08E
:1028B00001013A51000125EC05F001013C510001F4
:1028C00025EC05F001013D51000125EC05F0F85122
:1028D00025EC05F001013651000125EC05F0010160
:1028E0003B51000125EC05F0D650C40805E2959453
:1028F0008C8495968C8603D0D650C308FDE2D66AA8
:0A2900001BEF07F0000E016E03004C
:020000040030CA
:0E00000004CC3E1E0007A1000FC00FE00F4011
:00000001FF
;PIC18F4550
;CRC=73A3  CREATED="10-Apr-23 11:23"
