:0400000026EF05F0F2
:08000800046ED8CF05F0E0CF33
:1000100006F00001E9CF0CF0EACF07F0E1CF08F0DD
:10002000E2CF09F0D9CF0AF0DACF0BF0F3CF12F01C
:10003000F4CF13F0FACF14F0F5CF15F0F6CF16F099
:10004000F7CF17F000C00EF001C00FF002C010F0A3
:1000500003C011F0F2A630EF00F0F2B057EF00F05D
:100060000EC000F00FC001F010C002F011C003F08C
:100070000CC0E9FF07C0EAFF078E08C0E1FF09C016
:10008000E2FF0AC0D9FF0BC0DAFF12C0F3FF13C0B2
:10009000F4FF14C0FAFF15C0F5FF16C0F6FF17C035
:1000A000F7FF045006C0E0FF05C0D8FF100081CF65
:1000B0003EF101013E51300B006E00383F6F0F0ED4
:1000C0003F173F514019436F43530FE0435103081B
:1000D0000CE0D89040353F19020B04E000018C2B56
:1000E00003D0010100018C0701013FC140F13E51E5
:1000F000C00B006E0038416F41334133030E41178E
:1001000041514219446F44530FE0445103080CE03D
:10011000D89042354119020B04E000018D0703D04D
:10012000010100018D2B010141C142F1F29000015A
:1001300030EF00F0800ED8A202D00101841B010133
:10014000896B8A6B80C188F18451881B7F51D8B438
:10015000DFD0876F006E8351D8B4E3D0875FD8B407
:1001600083D03EE384C18DF18D8F85C18CF186C132
:100170008BF18A6BD8908D338C338B338A33872FF6
:10018000F8D788AF03D08981E0D089918791898998
:10019000010EEA6E820EE96EEBD0899988BF0AD013
:1001A00087A113D08D338C338B338A33002AD8B494
:1001B000C7D00BD08DBF0CD0D8908A378B378C37F7
:1001C0008D370006D8B4BCD0F5D7898D6DD0899D08
:1001D00080C188F180AF02D08D8FABD08D9FA9D028
:1001E00083C187F183C100F07F51875F80C18DF1AA
:1001F0008D8F81C18CF182C18BF18A6BD8908D3348
:100200008C338B338A33872FF8D788AF03D0898319
:100210009CD089938791898B010EEA6E860EE96ED8
:10022000A7D0899B88BF0AD087A113D08D338C3388
:100230008B338A33002AD8B483D00BD08DBF0CD037
:10024000D8908A378B378C378D370006D8B478D062
:10025000F5D7898F29D0899F84C188F184AF02D0D6
:100260008D8F67D08D9F65D084C18DF18D8F85C1B5
:100270008CF186C18BF188AF04D08D9F898565D0C4
:1002800089958A6B8791010EEA6E820EE96E70D0B5
:1002900088BF1CD080C188F187A106D08D338C33F4
:1002A0008B338A33002A4CE08AAF0BD08B2B09E1C9
:1002B0008C2B07E18D2B05E18D338C338B33002A9A
:1002C0003FE089BD84D789BFC6D71CD0800E8D1B67
:1002D0008DAF04D03AD084C188F10AD080C188F1B2
:1002E0008D5306E18C5304E18B5302E1006A21D067
:1002F0008DBF08D0D8908A378B378C378D37002E3A
:10030000F7D71ED088AF02D08D8F13D08D9F11D01C
:1003100083C100F084C18DF185C18CF186C18BF160
:1003200008D07FC100F080C18DF181C18CF182C104
:100330008BF18DC101F08CC102F08BC103F034D080
:10034000006A016A026A036A2FD08A6B8B1F8C1FB6
:100350008D1F8A1F8A2B05E18B2B03E18C2B01E17A
:100360008D2B89B112D789B354D789B589D7B3D723
:10037000EF508B2705E38C2B03E18D2BD8B48781BD
:10038000ED52EF508C2703E38D2BD8B48781ED52CB
:10039000EF50EFBE01D0800A8D27D8B0878189B990
:1003A000FCD689BB3ED774D70001120001017F51F2
:1003B000D8B4A5D08B6F8351D8B4A1D08B5F05E39F
:1003C0007F0E8B27D8B09BD006D0810E8B5FD8A034
:1003D00096D0D8B494D08BC100F0016A026A036A47
:1003E0008A6B80C189F1898F81C188F182C187F1CF
:1003F000190E8B6F8651875F0DE2010E885F0AE24E
:10040000895F08E28A5F06E28A2B892B882B865156
:10041000872728D08551885F12E2010E895F0FE29D
:100420008A5F0DE28A2B892B855188278651872781
:1004300019E3882B17E1892B15E18A2B13D08451FE
:100440008009895F0EE2010E8A5F0BE28A2B8451DC
:100450008009892785518827E9E3892BE7E18A2BE1
:10046000E5D703808B2F01D00BD0D8908737883702
:1004700089378A37D8900336023601368C37BAD797
:100480008CA106D0D8900132023203328C3302D0D4
:10049000000635E08CBF1ED0D89087378837893763
:1004A0008A378651875F07E2010E885F04E2895F21
:1004B00002E28A5F1AE38551885F05E2010E895FD7
:1004C00002E28A5F12E384518009895F03E2010E30
:1004D0008A5F0BE3032A09E1022A07E1012A05E109
:1004E000002A0DE001320232033280C18BF18451C7
:1004F0008B1B8BAF02D0018E06D0019E04D0006A08
:10050000016A026A036A0001120001018351D8B432
:1005100071D0006E8751D8B46DD0002604E3810EEF
:10052000002668E204D07F0E005E64E363E084C1CD
:100530008BF188518B1B848F888F86518A03F4CF6F
:100540008DF185518903F4CF03F0F3CF8CF18A0349
:10055000F3508D27F4508C23000E0322865189031B
:10056000F3508D27F4508C23000E026A03220222DE
:1005700084518A03F3508C27F4500322000E022288
:1005800084518903F3500326F4500222000E016ABD
:10059000012286518803F3508C27F4500322000E69
:1005A0000222012285518803F3500326F4500222CF
:1005B000000E012284518803F3500226F4500122D8
:1005C000002A01BE05D08C370336023601360006FC
:1005D000000E8CAF0AD0032A02220122015005E14D
:1005E000025003E1035001E1002A8BBF018E8BAF63
:1005F000019E04D0006A016A026A036A00011200C7
:10060000080E016E050E006E002EFED78A929392A0
:10061000060E006E002EFED701017D378A90D8B0FD
:100620009380D8A09390938281A2FED7012E01D00F
:1006300002D00001E7D7050E006E002EFED78A9289
:10064000939200009380060E006E002EFED7060ED9
:10065000006E002EFED7938281A2FED7016A060E9D
:10066000006E002EFED781B001808A9293928A900C
:100670009390000112009380050E006E002EFED7AD
:100680009382060E006E002EFED78A909390050E80
:10069000006E002EFED78A929392D00E01017D6FDC
:1006A0000001AEDF7BC17DF1ABDF7CC17DF1A8DF56
:1006B00093900000938281A2FED7050E006E002E5B
:1006C000FED700D000009380050E006E002EFED7EE
:1006D0001200010EEA6E7B0EE96EEF500DE0060E81
:1006E000016E006A002EFED7012EFBD77B0E006E36
:1006F000002EFED7EF2EF3D712006B0E01017B6F99
:10070000800E7C6F0001B7DF640E01017B6F00017A
:10071000E0DF6B0E01017B6F7C6B0001ACDF640ED0
:1007200001017B6F0001D5DF1A0E01017B6F010E05
:100730007C6F0001A0DF0A0E01017B6F0001C9DFA1
:100740001B0E01017B6F7C6B000195DF3AEF07F018
:10075000080E01017E6F00C07FF19380060E006ECF
:10076000002EFED7938281A2FED781B0D88081A0CF
:10077000D8900136050E006E002EFED793928A9215
:100780007E2FEBD79380060E006E002EFED78A9048
:100790007F51D8A493900000938281A2FED7050ECA
:1007A000006E002EFED78A929392060E006E002EE7
:1007B000FED78A909390000113EF04F09380050E0A
:1007C000006E002EFED79382060E006E002EFED71E
:1007D0008A909390050E006E002EFED78A92939217
:1007E000D00E01017D6F00010BDF7BC17DF108DFC1
:1007F0009380050E006E002EFED79382060E006ECB
:10080000002EFED781A2FED78A909390050E006E2F
:10081000002EFED78A929392D10E01017D6F0001C6
:10082000EFDE006A95D701C07CF1939000009382BF
:1008300081A2FED7050E006E002EFED700D000006C
:100840009380050E006E002EFED7036A01017CC165
:1008500001F003C002F0000112003B0E01017B6FAA
:100860000001ACDF01C045F13C0E01017B6F0001CE
:10087000A5DF01C046F15BEF07F0450E01017B6F7C
:1008800000019CDF01C04BF1460E01017B6F0001AE
:1008900095DF01C04CF15CEF07F001017B6B9282A8
:1008A00080B201D07B81928480B401D07B83928618
:1008B00080B601D07B857BC101F000015DEF07F0C0
:1008C0008E0E006E7EC101F07DC102F0036A01AEA2
:1008D00005D0011E021E022A01E1012A015209E18E
:1008E00002C001F0026A080E005E015202E1006AD5
:1008F0000ED0D89001BE04D0023601360006F9D7DA
:1009000001017EAF02D0000102D0019E0001120061
:1009100084C18BF1010188518B1B8BAF05D0D8941A
:10092000D89084BFD8802FD084C18BF187C18CF13F
:1009300083518C5F06E08BAF26D0D850010AD86E69
:1009400022D088C18CF184518C5F06E08BAF1BD024
:10095000D850010AD86E17D089C18CF185518C5FAF
:1009600006E08BAF10D0D850010AD86E0CD08AC1E7
:100970008CF186518C5F06E08BAF05D0D850010A10
:10098000D86E01D0D890000112008E0E006E0101C9
:100990008351005E84C102F085C101F0028E0052D5
:1009A00009E0D890025202E1015204E00232013221
:1009B000002EF7D784AF05D0011E021E012AD8B43D
:1009C000022A00010FEF05F0BBC086F1BAC085F125
:1009D000B9C084F1B8C083F17EC18AF17DC189F1CB
:1009E0007CC188F17BC187F190DD03C082F102C038
:1009F00081F101C080F100C07FF17FC100F080C1B2
:100A000001F081C102F082C103F0019E82C186F132
:100A100081C185F101C084F17FC183F1B6D701C0E6
:100A20008BF082C186F181C185F180C184F17FC1E3
:100A300083F101018A6B896B886B876B000168DF2A
:100A400002E3800E8B278BC001F01200F86AD09E63
:100A5000078EB8862A0EAF6E000EB06EA60EAC6E74
:100A6000900EAB6E0A0E226ED70E216E230E206EF4
:100A7000780E1F6E266A256A400E246E820E236E43
:100A8000DC0E2A6E0F0E296E490E286E800E276E20
:100A90007B0E2E6E140E2D6E080E2C6E840E2B6E99
:100AA000326A316A0C0E306E840E2F6E140E366E62
:100AB000AE0E356E070E346E7E0E336E3A6A396AAC
:100AC0001E0E386E860E376E3E6A3D6A3C6A800E98
:100AD0003B6E426A416A406A820E3F6E466A456AD0
:100AE000446A800E436E4A6A496A486A820E476EBB
:100AF000E10E4E6E7A0E4D6E540E4C6E7E0E4B6EA7
:100B00006F0E526E120E516E030E506E750E4F6EBA
:100B1000566A556A200E546E830E536E5A6A596A8D
:100B2000586A7F0E576E5E6A5D6A400E5C6E7F0E7D
:100B30005B6E626B616B606B7E0E5F6E330E666F19
:100B4000656F670E646F820E636F6A6B696B5C0E14
:100B5000686F840E676F6E6B6D6B100E6C6F820E1C
:100B60006B6F850E726FEB0E716F250E706F820EBC
:100B70006F6F766B756B200E746F830E736F360E0E
:100B80007A6FFA0E796F0E0E786F790E776F7E6B33
:100B90007D6B7C6B710E7B6F2D0E826F230E816FD0
:100BA0007A0E806F770E7F6F420E866F600E856FB4
:100BB000650E846F770E836FD8820101826B816B23
:100BC000806B7F0E7F6F86C086F185C085F184C003
:100BD00084F183C083F100019AEC00F003C08AF035
:100BE00002C089F001C088F000C087F066C09FF0A5
:100BF00065C09EF064C09DF063C09CF0A36BA26BC7
:100C0000A16BA06BA76BA66BA56BA46BAB6BAA6B60
:100C1000A96BA86BAF6BAE6BAD6BAC6B0101826B5C
:100C2000816B806B7F0E7F6F22C086F121C085F1C2
:100C300020C084F11FC083F10001D6EC01F003C095
:100C4000B3F002C0B2F001C0B1F000C0B0F00101D9
:100C5000866B856B846B800E836F26C08AF125C0FE
:100C600089F124C088F123C087F100014EDC03C064
:100C70007EF102C07DF101C07CF100C07BF103C0B8
:100C800086F102C085F101C084F100C083F12EC05D
:100C90008AF12DC089F12CC088F12BC087F135DC99
:100CA0002AC082F129C081F128C080F127C07FF1DC
:100CB00003C086F102C085F101C084F100C083F158
:100CC000D6EC01F003C0B7F002C0B6F001C0B5F039
:100CD00000C0B4F00101826B816B7E0E806F850EC7
:100CE0007F6F72C086F171C085F170C084F16FC0F2
:100CF00083F10001D6EC01F003C0BBF002C0BAF0F2
:100D000001C0B9F000C0B8F0BF6BBE6BBD6BBC6B6F
:100D1000C36BC26BC16BC06BC76BC66BC56BC46B5F
:100D2000CB6BCA6BC96BC86BCF6BCE6BCD6BCC6B0F
:100D3000D36BD26BD16BD06BDB6BDA6BD96BD86BAF
:100D4000E36BE26BE16BE06BEB6BEA6BE96BE86B1F
:100D5000EF6BEE6BED6BEC6BF36BF26BF16BF06BBF
:100D6000F76BF66BF56BF46BFB6BFA6BF96BF86B6F
:100D7000FF6BFE6BFD6BFC6B0101036B026B016B88
:100D8000006B076B066B056B7F0E046F0B6B0A6BBA
:100D9000096B086F0D910D930D950D970D990D8BA6
:100DA000116B106B0F6B0E6B156B146B136B126B5F
:100DB000196B186B176B166B1D6B1C6B1B6B1A6B0F
:100DC000216B206B1F6B1E6B256B246B236B226BBF
:100DD000296B286B276B266B2D6B2C6B2B6B2A6B6F
:100DE000316B306B2F6B2E6B356B346B336B326B1F
:100DF000396B386B376B366B3A6B3B6B3C6B3D6BCF
:100E00003E6B3F6B406B416B426B436B446B4D6B76
:100E10004E6B4F6B506B516B526B536B546B556BEE
:100E2000566B5E6B5D6B5C6B800E5B6FC30E866F8B
:100E3000F50E856F480E846F810E836F5EC18AF157
:100E40005DC189F15CC188F15BC187F1000185EC6E
:100E500002F003C062F102C061F101C060F100C0A4
:100E60005FF1C150C00B0F09C16E070EB46E196A55
:100E70001A6A43D4C70ED56ED66A01013F6B406B28
:100E80007F0E00018C6F0101416B426B00018D6F81
:100E9000000E0609CA6EFE0ECB6E94948B940C0E57
:100EA000BD6EB76AB66A94928B92BA6EF2869D8ACC
:100EB000C00EF212D2D4E1D4F0D401C00CF1036A16
:100EC00001014551E8BE03060001906F03C091F097
:100ED00090C003F0000E906F03C091F0036A01010F
:100EE0004651E8BE03060001902703509123036A90
:100EF00001014B51E8BE03060001926F03C093F05D
:100F000092C003F0000E926F03C093F0036A0101D8
:100F10004C51E8BE030600019227035093230101C0
:100F20000C51040B006E003200323F0E00160D9182
:100F300000B00D810C51020B006ED89000320D955F
:100F400000B00D850C51010B0D93E8B00D837F0EA1
:100F5000D88000018C558E6F7F0ED8808D558F6F95
:100F60007F0E8C6F8D6F01017E6B8EC07DF17DBF1A
:100F70007E070001A5DC03C086F102C085F101C037
:100F800084F100C083F1B7C08AF1B6C089F1B5C061
:100F900088F1B4C087F185EC02F003C07EF102C095
:100FA0007DF101C07CF100C07BF103C086F102C07D
:100FB00085F101C084F100C083F1B3C08AF1B2C0F1
:100FC00089F1B1C088F1B0C087F185EC02F003C0AF
:100FD000CBF002C0CAF001C0C9F000C0C8F00101E6
:100FE0007E6B8FC07DF17DBF7E07000169DC03C091
:100FF00086F102C085F101C084F100C083F1B7C061
:101000008AF1B6C089F1B5C088F1B4C087F185EC2A
:1010100002F003C07EF102C07DF101C07CF100C08E
:101020007BF103C086F102C085F101C084F100C0EC
:1010300083F1B3C08AF1B2C089F1B1C088F1B0C008
:1010400087F185EC02F003C0CFF002C0CEF001C002
:10105000CDF000C0CCF0901D01017B6F0001911D0F
:1010600001017C6F7B2BD8B47C2B7CC17EF17BC1D2
:101070007DF1000125DC03C086F102C085F101C0CD
:1010800084F100C083F17EC08AF17DC089F17CC00B
:1010900088F17BC087F185EC02F003C097F002C0B5
:1010A00096F001C095F000C094F093C07EF192C01C
:1010B0007DF106DC03C086F102C085F101C084F138
:1010C00000C083F182C08AF181C089F180C088F1BB
:1010D0007FC087F185EC02F003C09BF002C09AF05C
:1010E00001C099F000C098F097C086F196C085F1D4
:1010F00095C084F194C083F101018A6B896B340E31
:10110000886F850E876F000185EC02F003C0A7F0A1
:1011100002C0A6F001C0A5F000C0A4F09BC086F1FB
:101120009AC085F199C084F198C083F122C08AF1F8
:1011300021C089F120C088F11FC087F185EC02F041
:10114000D892AFC082F1AEC081F1ADC080F1ACC029
:101150007FF103C086F102C085F101C084F100C0B7
:1011600083F19AEC00F08AC086F189C085F188C0CD
:1011700084F187C083F103C08AF102C089F101C004
:1011800088F100C087F185EC02F003C07EF102C057
:101190007DF101C07CF100C07BF186C086F185C085
:1011A00085F184C084F183C083F1A7C08AF1A6C011
:1011B00089F1A5C088F1A4C087F185EC02F0D8922E
:1011C0007EC182F17DC181F17CC180F17BC17FF163
:1011D00003C086F102C085F101C084F100C083F133
:1011E0009AEC00F003C0ABF002C0AAF001C0A9F075
:1011F00000C0A8F0ABC0AFF0AAC0AEF0A9C0ADF07F
:10120000A8C0ACF0ABC086F1AAC085F1A9C084F13A
:10121000A8C083F17AC08AF179C089F178C088F1D9
:1012200077C087F185EC02F003C0A3F002C0A2F002
:1012300001C0A1F000C0A0F0CBC082F1CAC081F112
:10124000C9C080F1C8C07FF10BC186F10AC185F128
:1012500009C184F108C183F1D6EC01F003C07EF12D
:1012600002C07DF101C07CF100C07BF1CFC082F1F2
:10127000CEC081F1CDC080F1CCC07FF107C186F135
:1012800006C185F105C184F104C183F1D6EC01F0FA
:10129000D8927EC182F17DC181F17CC180F17BC198
:1012A0007FF103C086F102C085F101C084F100C066
:1012B00083F19AEC00F003C07EF102C07DF101C021
:1012C0007CF100C07BF103C082F102C081F101C05A
:1012D00080F100C07FF10101866B856B846B800E0D
:1012E000836F0001D6EC01F003C0D3F002C0D2F04E
:1012F00001C0D1F000C0D0F0D3C07AF1D2C079F1F2
:10130000D1C078F1D0C077F172C176F171C175F1B9
:1013100070C174F16FC173F1D892D3C082F1D2C0A1
:1013200081F1D1C080F1D0C07FF17AC186F179C15D
:1013300085F178C184F177C183F19AEC00F06AC13C
:1013400086F169C185F168C184F167C183F103C089
:101350008AF102C089F101C088F100C087F185ECF3
:1013600002F003C07EF102C07DF101C07CF100C03B
:101370007BF16EC186F16DC185F16CC184F16BC1E9
:1013800083F176C18AF175C189F174C188F173C1A5
:1013900087F185EC02F0D8927EC182F17DC181F1A6
:1013A0007CC180F17BC17FF103C086F102C085F171
:1013B00001C084F100C083F19AEC00F003C072F127
:1013C00002C071F101C070F100C06FF162C186F11D
:1013D00061C185F160C184F15FC183F122C08AF1EE
:1013E00021C089F120C088F11FC087F185EC02F08F
:1013F00003C066F102C065F101C064F100C063F191
:10140000D89266C182F165C181F164C180F163C186
:101410007FF10101866B856B846B800E836F000109
:101420009AEC00F066C182F165C181F164C180F17E
:1014300063C17FF103C086F102C085F101C084F170
:1014400000C083F1D6EC01F003C06AF102C069F17B
:1014500001C068F100C067F1D88266C182F165C140
:1014600081F164C180F163C17FF10101866B856BFD
:10147000846B800E836F00019AEC00F000C07BF15A
:101480000150800A01017C6F02C07DF103C07EF132
:10149000D89266C182F165C181F164C180F163C1F6
:1014A0007FF1866B856B846B800E836F00019AECF5
:1014B00000F07EC182F17DC181F17CC180F17BC1F0
:1014C0007FF103C086F102C085F101C084F100C044
:1014D00083F1D6EC01F003C06EF102C06DF101C0E2
:1014E0006CF100C06BF10101866B856B846B800E23
:1014F000836FBFC08AF1BEC089F1BDC088F1BCC096
:1015000087F1000188EC04F0D8A0FFD0EFC0F7F01D
:10151000EEC0F6F0EDC0F5F0ECC0F4F0D8825AC0A1
:1015200082F159C081F158C080F157C07FF172C17A
:1015300086F171C185F170C184F16FC183F19AECBC
:1015400000F003C0EFF002C0EEF001C0EDF000C00B
:10155000ECF0EFC086F1EEC085F1EDC084F1ECC097
:1015600083F122C08AF121C089F120C088F11FC017
:1015700087F185EC02F0D892F3C082F1F2C081F1DC
:10158000F1C080F1F0C07FF103C086F102C085F1A7
:1015900001C084F100C083F19AEC00F003C0F3F0C5
:1015A00002C0F2F001C0F1F000C0F0F06EC086F1B0
:1015B0006DC085F16CC084F16BC083F1F3C08AF11A
:1015C000F2C089F1F1C088F1F0C087F188EC04F035
:1015D00009E36EC0F3F06DC0F2F06CC0F1F06BC0C7
:1015E000F0F015D0F3C086F1F2C085F1F1C084F1BE
:1015F000F0C083F101018A6B896B886B876B0001F6
:1016000088EC04F004E3F36BF26BF16BF06B56C003
:1016100086F155C085F154C084F153C083F1F3C005
:101620008AF1F2C089F1F1C088F1F0C087F185EC50
:1016300002F003C031F102C030F101C02FF100C04F
:101640002EF14EC086F14DC085F14CC084F14BC0E7
:1016500083F1EFC08AF1EEC089F1EDC088F1ECC0F2
:1016600087F185EC02F003C029F102C028F101C026
:1016700027F100C026F1D882EFC082F1EEC081F1DF
:10168000EDC080F1ECC07FF1F7C086F1F6C085F1C6
:10169000F5C084F1F4C083F19AEC00F052C086F1F9
:1016A00051C085F150C084F14FC083F103C08AF16D
:1016B00002C089F101C088F100C087F185EC02F019
:1016C00003C07EF102C07DF101C07CF100C07BF15E
:1016D00003C086F102C085F101C084F100C083F12E
:1016E000B3C08AF1B2C089F1B1C088F1B0C087F14E
:1016F00085EC02F003C02DF102C02CF101C02BF1EA
:1017000000C02AF195968C8629D00101316B306B8F
:101710002F6B2E6B296B286B276B266B2D6B2C6B1D
:101720002B6B2A6BD892BFC082F1BEC081F1BDC0C5
:1017300080F1BCC07FF122C086F121C085F120C0BC
:1017400084F11FC083F100019AEC00F003C0BFF0E8
:1017500002C0BEF001C0BDF000C0BCF0D89229C1EB
:1017600082F128C181F127C180F126C17FF12DC10D
:1017700086F12CC185F12BC184F12AC183F19AEC49
:1017800000F003C07EF102C07DF101C07CF100C019
:101790007BF1D89203C082F102C081F101C080F1D7
:1017A00000C07FF131C186F130C185F12FC184F1D4
:1017B0002EC183F19AEC00F003C07EF102C07DF1EE
:1017C00001C07CF100C07BF1D89203C082F102C05D
:1017D00081F101C080F100C07FF166C086F165C073
:1017E00085F164C084F163C083F19AEC00F003C01A
:1017F0009FF002C09EF001C09DF000C09CF06AC046
:1018000086F169C085F168C084F167C083F19FC02B
:101810008AF19EC089F19DC088F19CC087F188EC57
:1018200004F008E36AC09FF069C09EF068C09DF0B4
:1018300067C09CF09FC086F19EC085F19DC084F179
:101840009CC083F166C08AF165C089F164C088F1EB
:1018500063C087F188EC04F008E366C09FF065C0C0
:101860009EF064C09DF063C09CF001010DA93BD0C7
:1018700039C186F138C185F137C184F136C183F1B0
:101880005EC08AF15DC089F15CC088F15BC087F100
:10189000000188EC04F0D8B002D0010124D0D89225
:1018A00039C182F138C181F137C180F136C17FF190
:1018B00022C086F121C085F120C084F11FC083F1D0
:1018C0009AEC00F003C039F102C038F101C037F1E1
:1018D00000C036F15A6A596A200E586E820E576E51
:1018E00095948C8422D05EC086F15DC085F15CC089
:1018F00084F15BC083F139C18AF138C189F137C104
:1019000088F136C187F1000188EC04F00EE3010193
:101910000D99396B386B376B366B5A6A596A586A4E
:101920007F0E576E95948C9400019FC086F19EC0E7
:1019300085F19DC084F19CC083F10A0E01018A6F7C
:10194000D70E896FA30E886F780E876F000185EC24
:1019500002F003C09FF002C09EF001C09DF000C0E5
:101960009CF0E7C0EBF0E6C0EAF0E5C0E9F0E4C0C7
:10197000E8F0D8829FC082F19EC081F19DC080F1C5
:101980009CC07FF1A3C086F1A2C085F1A1C084F103
:10199000A0C083F19AEC00F003C0E7F002C0E6F0CB
:1019A00001C0E5F000C0E4F00101866B856B846B3B
:1019B000836BD3C08AF1D2C089F1D1C088F1D0C085
:1019C00087F1000188EC04F0D8A07ED0D3C086F166
:1019D000D2C085F1D1C084F1D0C083F101018A6BFE
:1019E000896B200E886F820E876F000188EC04F0EF
:1019F0006BE301010DA902D0000166D0330E866FA2
:101A0000856FB30E846F7D0E836F9FC08AF19EC079
:101A100089F19DC088F19CC087F1000188EC04F039
:101A200053E301010DA122D00DB320D00DA50DD09F
:101A3000330E076F066F056F7E0E046F660E0B6F19
:101A40000A6F096F7F0E086F10D0CD0E076FCC0E96
:101A5000066F4C0E056F7D0E046FCD0E0B6FCC0E16
:101A60000A6F0C0E096F800E086F2DD00DB122D0B9
:101A70000DA320D00DA50DD0660E076F066F056F64
:101A80007F0E046F330E0B6F0A6F096F7E0E086FA7
:101A900010D0CD0E076FCC0E066F0C0E056F800EAA
:101AA000046FCD0E0B6FCC0E0A6F4C0E096F7D0EBE
:101AB000086F09D0076B066B056B7F0E046F0B6B0D
:101AC0000A6B096B086F3CD0D3C086F1D2C085F198
:101AD000D1C084F1D0C083F101018A6B896BC00E43
:101AE000886F810E876F000188EC04F01FE301010D
:101AF000866B856B846B800E836FBFC08AF1BEC01E
:101B000089F1BDC088F1BCC087F1000188EC04F008
:101B10000DE30101076B066B056B7F0E046F0B6B0A
:101B20000A6B096B086F0D890BD000010101076B6F
:101B3000066B056B7F0E046F0B6B0A6B096B086FEE
:101B400032C086F131C085F130C084F12FC083F1FD
:101B5000E7C08AF1E6C089F1E5C088F1E4C087F109
:101B6000000185EC02F003C011F102C010F101C0C8
:101B70000FF100C00EF1D882E7C082F1E6C081F11A
:101B8000E5C080F1E4C07FF1EBC086F1EAC085F1E9
:101B9000E9C084F1E8C083F19AEC00F036C086F128
:101BA00035C085F134C084F133C083F103C08AF1BC
:101BB00002C089F101C088F100C087F185EC02F014
:101BC00003C07EF102C07DF101C07CF100C07BF159
:101BD00003C086F102C085F101C084F100C083F129
:101BE000B3C08AF1B2C089F1B1C088F1B0C087F149
:101BF00085EC02F003C015F102C014F101C013F12D
:101C000000C012F135C186F134C185F133C184F1D0
:101C100032C183F172C08AF171C089F170C088F15C
:101C20006FC087F188EC04F064E36FC000F070517E
:101C3000800A016E71C002F072C003F072C086F1BA
:101C400071C085F1E8CF84F16FC083F135C18AF1AD
:101C500034C189F133C188F132C187F188EC04F0D5
:101C600048E33AC086F139C085F138C084F137C005
:101C700083F122C08AF121C089F120C088F11FC000
:101C800087F185EC02F003C07EF102C07DF101C056
:101C90007CF100C07BF103C086F102C085F101C078
:101CA00084F100C083F1E7C08AF1E6C089F1E5C0A4
:101CB00088F1E4C087F185EC02F0D89235C182F159
:101CC00034C181F133C180F132C17FF103C086F1AB
:101CD00002C085F101C084F100C083F19AEC00F0EC
:101CE00003C035F102C034F101C033F100C032F15C
:101CF00067D072C086F171C085F170C084F16FC089
:101D000083F135C18AF134C189F133C188F132C11F
:101D100087F188EC04F001E21BE1330E0101866FCC
:101D2000856F730E846F7E0E836F72C08AF171C0EF
:101D300089F170C088F16FC087F1000185EC02F075
:101D400003C035F102C034F101C033F100C032F1FB
:101D50006FC000F07051800A016E71C002F072C055
:101D600003F035C186F134C185F133C184F132C14C
:101D700083F172C08AF171C089F1E8CF88F16FC038
:101D800087F188EC04F001E21BE1330E0101866F5C
:101D9000856FF30E846F7E0E836F72C08AF171C0FF
:101DA00089F170C088F16FC087F1000185EC02F005
:101DB00003C035F102C034F101C033F100C032F18B
:101DC000D89211C182F110C181F10FC180F10EC111
:101DD0007FF115C186F114C185F113C184F112C1DF
:101DE00083F19AEC00F003C07EF102C07DF101C0E6
:101DF0007CF100C07BF1D89203C082F102C081F176
:101E000001C080F100C07FF135C186F134C185F198
:101E100033C184F132C183F19AEC00F003C0FBF0CE
:101E200002C0FAF001C0F9F000C0F8F076C086F107
:101E300075C085F174C084F173C083F1FBC08AF171
:101E4000FAC089F1F9C088F1F8C087F188EC04F094
:101E500008E376C0FBF075C0FAF074C0F9F073C007
:101E6000F8F073C000F07451800A016E75C002F082
:101E700076C003F0FBC086F1FAC085F1F9C084F1A9
:101E8000F8C083F176C08AF175C089F1E8CF88F196
:101E900073C087F188EC04F009E373C0F8F0745163
:101EA000800AF96F75C0FAF076C0FBF007C186F1C1
:101EB00006C185F105C184F104C183F1FBC08AF13B
:101EC000FAC089F1F9C088F1F8C087F185EC02F019
:101ED00003C0C7F002C0C6F001C0C5F000C0C4F026
:101EE0000BC186F10AC185F109C184F108C183F1F2
:101EF000FBC08AF1FAC089F1F9C088F1F8C087F116
:101F000085EC02F003C0C3F002C0C2F001C0C1F012
:101F100000C0C0F0DFC0E3F0DEC0E2F0DDC0E1F001
:101F2000DCC0E0F0D882C7C082F1C6C081F1C5C074
:101F300080F1C4C07FF1CFC086F1CEC085F1CDC0A5
:101F400084F1CCC083F19AEC00F003C0DFF002C052
:101F5000DEF001C0DDF000C0DCF03EC086F13DC027
:101F600085F13CC084F13BC083F1DFC08AF1DEC063
:101F700089F1DDC088F1DCC087F185EC02F003C097
:101F800021F102C020F101C01FF100C01EF125C1E6
:101F900086F124C185F123C184F122C183F172C08D
:101FA0008AF171C089F170C088F16FC087F188EC47
:101FB00004F064E36FC000F07051800A016E71C0DC
:101FC00002F072C003F072C086F171C085F1E8CFF3
:101FD00084F16FC083F125C18AF124C189F123C145
:101FE00088F122C187F188EC04F048E342C086F111
:101FF00041C085F140C084F13FC083F122C08AF125
:1020000021C089F120C088F11FC087F185EC02F062
:1020100003C07EF102C07DF101C07CF100C07BF104
:1020200003C086F102C085F101C084F100C083F1D4
:10203000DFC08AF1DEC089F1DDC088F1DCC087F144
:1020400085EC02F0D89225C182F124C181F123C12F
:1020500080F122C17FF103C086F102C085F101C089
:1020600084F100C083F19AEC00F003C025F102C0B6
:1020700024F101C023F100C022F167D072C086F1C3
:1020800071C085F170C084F16FC083F125C18AF100
:1020900024C189F123C188F122C187F188EC04F0C1
:1020A00001E21BE1330E0101866F856F730E846FB1
:1020B0007E0E836F72C08AF171C089F170C088F1A1
:1020C0006FC087F1000185EC02F003C025F102C06A
:1020D00024F101C023F100C022F16FC000F0705163
:1020E000800A016E71C002F072C003F025C186F152
:1020F00024C185F123C184F122C183F172C08AF128
:1021000071C089F1E8CF88F16FC087F188EC04F0E5
:1021100001E21BE1330E0101866F856FF30E846FC0
:102120007E0E836F72C08AF171C089F170C088F130
:102130006FC087F1000185EC02F003C025F102C0F9
:1021400024F101C023F100C022F1D89221C182F113
:1021500020C181F11FC180F11EC17FF125C186F12F
:1021600024C185F123C184F122C183F19AEC00F0EE
:1021700003C003F102C002F101C001F100C000F18F
:1021800072C086F171C085F170C084F16FC083F1B7
:1021900003C18AF102C189F101C188F100C187F14F
:1021A00088EC04F001E208E172C003F171C002F1B1
:1021B00070C001F16FC000F16FC000F07051800A73
:1021C000016E71C002F072C003F003C186F102C15A
:1021D00085F101C184F100C183F172C08AF171C03F
:1021E00089F1E8CF88F16FC087F188EC04F001E253
:1021F0000BE16FC000F17051800A0101016F71C0E5
:1022000002F172C003F1000103C17EF102C17DF150
:1022100001C17CF100C17BF1E4EC04F001C03AF1B2
:10222000D7C0DBF0D6C0DAF0D5C0D9F0D4C0D8F032
:10223000D882C3C082F1C2C081F1C1C080F1C0C0E8
:102240007FF1CBC086F1CAC085F1C9C084F1C8C096
:1022500083F19AEC00F003C0D7F002C0D6F001C0C1
:10226000D5F000C0D4F046C086F145C085F144C029
:1022700084F143C083F1D7C08AF1D6C089F1D5C0BB
:1022800088F1D4C087F185EC02F003C019F102C0D7
:1022900018F101C017F100C016F11DC186F11CC173
:1022A00085F11BC184F11AC183F172C08AF171C03A
:1022B00089F170C088F16FC087F188EC04F064E3A5
:1022C0006FC000F07051800A016E71C002F072C0E0
:1022D00003F072C086F171C085F1E8CF84F16FC060
:1022E00083F11DC18AF11CC189F11BC188F11AC19A
:1022F00087F188EC04F048E34AC086F149C085F1D3
:1023000048C084F147C083F122C08AF121C089F11D
:1023100020C088F11FC087F185EC02F003C07EF178
:1023200002C07DF101C07CF100C07BF103C086F1E9
:1023300002C085F101C084F100C083F1D7C08AF1E9
:10234000D6C089F1D5C088F1D4C087F185EC02F000
:10235000D8921DC182F11CC181F11BC180F11AC14B
:102360007FF103C086F102C085F101C084F100C095
:1023700083F19AEC00F003C01DF102C01CF101C012
:102380001BF100C01AF167D072C086F171C085F1EF
:1023900070C084F16FC083F11DC18AF11CC189F145
:1023A0001BC188F11AC187F188EC04F001E21BE13E
:1023B000330E0101866F856F730E846F7E0E836FFF
:1023C00072C08AF171C089F170C088F16FC087F165
:1023D000000185EC02F003C01DF102C01CF101C038
:1023E0001BF100C01AF16FC000F07051800A016E3D
:1023F00071C002F072C003F01DC186F11CC185F1ED
:102400001BC184F11AC183F172C08AF171C089F1D4
:10241000E8CF88F16FC087F188EC04F001E21BE19E
:10242000330E0101866F856FF30E846F7E0E836F0E
:1024300072C08AF171C089F170C088F16FC087F1F4
:10244000000185EC02F003C01DF102C01CF101C0C7
:102450001BF100C01AF1D89219C182F118C181F1A3
:1024600017C180F116C17FF11DC186F11CC185F134
:102470001BC184F11AC183F19AEC00F003C0FFF094
:1024800002C0FEF001C0FDF000C0FCF072C086F199
:1024900071C085F170C084F16FC083F1FFC08AF113
:1024A000FEC089F1FDC088F1FCC087F188EC04F022
:1024B00001E208E172C0FFF071C0FEF070C0FDF0F3
:1024C0006FC0FCF06FC000F07051800A016E71C0E7
:1024D00002F072C003F0FFC086F1FEC085F1FDC0BE
:1024E00084F1FCC083F172C08AF171C089F1E8CF38
:1024F00088F16FC087F188EC04F001E209E16FC058
:10250000FCF07051800AFD6F71C0FEF072C0FFF0E8
:10251000FFC07EF1FEC07DF1FDC07CF1FCC07BF10F
:10252000E4EC04F001C03BF101013A517F080AE2FA
:1025300096928D9296908D80800E3A5FD8903A3523
:102540003D6F07D096928D8296908D90D8903A35B7
:102550003D6F3DC1BBFF3B517F080AE295928C92D3
:1025600095908C80800E3B5FD8903B353C6F07D0B8
:1025700095928C8295908C90D8903B353C6F3CC165
:10258000BEFFD650C40801E203D0D650C308FDE216
:0E259000D66A00015AEF07F0000E016E03003C
:020000040030CA
:0E00000004CC3E1E0007A1000FC00FE00F4011
:00000001FF
;PIC18F4550
;CRC=DE8D  CREATED="18-May-23 12:42"
