:0400000029EF05F0EF
:08000800046ED8CF05F0E0CF33
:1000100006F00001E9CF0CF0EACF07F0E1CF08F0DD
:10002000E2CF09F0D9CF0AF0DACF0BF0F3CF12F01C
:10003000F4CF13F0FACF14F0F5CF15F0F6CF16F099
:10004000F7CF17F000C00EF001C00FF002C010F0A3
:1000500003C011F0F2A630EF00F0F2B057EF00F05D
:100060000EC000F00FC001F010C002F011C003F08C
:100070000CC0E9FF07C0EAFF078E08C0E1FF09C016
:10008000E2FF0AC0D9FF0BC0DAFF12C0F3FF13C0B2
:10009000F4FF14C0FAFF15C0F5FF16C0F6FF17C035
:1000A000F7FF045006C0E0FF05C0D8FF100081CF65
:1000B00032F101013251300B006E0038336F0F0EF8
:1000C000331733513419376F37530FE03751030863
:1000D0000CE0D89034353319020B04E00001842B76
:1000E00003D0010100018407010133C134F1325111
:1000F000C00B006E0038356F35333533030E3517BE
:1001000035513619386F38530FE0385103080CE079
:10011000D89036353519020B04E00001850703D06D
:1001200001010001852B010135C136F1F29000017A
:1001300030EF00F0800ED8A202D00101571B010160
:100140005C6B5D6B53C15BF157515B1B5251D8B473
:10015000DFD05A6F006E5651D8B4E3D05A5FD8B48E
:1001600083D03EE357C160F1608F58C15FF159C140
:100170005EF15D6BD89060335F335E335D335A2F31
:10018000F8D75BAF03D05C81E0D05C915A915C8979
:10019000010EEA6E550EE96EEBD05C995BBF0AD09A
:1001A0005AA113D060335F335E335D33002AD8B475
:1001B000C7D00BD060BF0CD0D8905D375E375F37AB
:1001C00060370006D8B4BCD0F5D75C8D6DD05C9D8F
:1001D00053C15BF153AF02D0608FABD0609FA9D009
:1001E00056C15AF156C100F052515A5F53C160F1E5
:1001F000608F54C15FF155C15EF15D6BD890603383
:100200005F335E335D335A2FF8D75BAF03D05C8327
:100210009CD05C935A915C8B010EEA6E590EE96E8C
:10022000A7D05C9B5BBF0AD05AA113D060335F3369
:100230005E335D33002AD8B483D00BD060BF0CD0BE
:10024000D8905D375E375F3760370006D8B478D016
:10025000F5D75C8F29D05C9F57C15BF157AF02D0B7
:10026000608F67D0609F65D057C160F1608F58C1C3
:100270005FF159C15EF15BAF04D0609F5C8565D0D2
:100280005C955D6B5A91010EEA6E550EE96E70D069
:100290005BBF1CD053C15BF15AA106D060335F3302
:1002A0005E335D33002A4CE05DAF0BD05E2B09E17D
:1002B0005F2B07E1602B05E160335F335E33002A7B
:1002C0003FE05CBD84D75CBFC6D71CD0800E601BEE
:1002D00060AF04D03AD057C15BF10AD053C15BF193
:1002E000605306E15F5304E15E5302E1006A21D0EE
:1002F00060BF08D0D8905D375E375F376037002E1B
:10030000F7D71ED05BAF02D0608F13D0609F11D0A3
:1003100056C100F057C160F158C15FF159C15EF19B
:1003200008D052C100F053C160F154C15FF155C112
:100330005EF160C101F05FC102F05EC103F034D034
:10034000006A016A026A036A2FD05D6B5E1F5F1F3D
:10035000601F5D1F5D2B05E15E2B03E15F2B01E15B
:10036000602B5CB112D75CB354D75CB589D7B3D7D7
:10037000EF505E2705E35F2B03E1602BD8B45A8171
:10038000ED52EF505F2703E3602BD8B45A81ED5252
:10039000EF50EFBE01D0800A6027D8B05A815CB917
:1003A000FCD65CBB3ED774D700011200010152514C
:1003B000D8B4A5D05E6F5651D8B4A1D05E5F05E326
:1003C0007F0E5E27D8B09BD006D0810E5E5FD8A08E
:1003D00096D0D8B494D05EC100F0016A026A036A74
:1003E0005D6B53C15CF15C8F54C15BF155C15AF137
:1003F000190E5E6F59515A5F0DE2010E5B5F0AE202
:100400005C5F08E25D5F06E25D2B5C2B5B2B595164
:100410005A2728D058515B5F12E2010E5C5F0FE251
:100420005D5F0DE25D2B5C2B58515B2759515A27BC
:1004300019E35B2B17E15C2B15E15D2B13D05751B2
:1004400080095C5F0EE2010E5D5F0BE25D2B575190
:1004500080095C2758515B27E9E35C2BE7E15D2BC2
:10046000E5D703805E2F01D00BD0D8905A375B3789
:100470005C375D37D8900336023601365F37BAD71E
:100480005FA106D0D8900132023203325F3302D02E
:10049000000635E05FBF1ED0D8905A375B375C3717
:1004A0005D3759515A5F07E2010E5B5F04E25C5F02
:1004B00002E25D5F1AE358515B5F05E2010E5C5F8B
:1004C00002E25D5F12E3575180095C5F03E2010EB7
:1004D0005D5F0BE3032A09E1022A07E1012A05E136
:1004E000002A0DE001320232033253C15EF157514E
:1004F0005E1B5EAF02D0018E06D0019E04D0006A62
:10050000016A026A036A0001120001015651D8B45F
:1005100071D0006E5A51D8B46DD0002604E3810E1C
:10052000002668E204D07F0E005E64E363E057C1FA
:100530005EF15B515E1B578F5B8F59515D03F4CFAA
:1005400060F158515C03F4CF03F0F3CF5FF15D032A
:10055000F3506027F4505F23000E032259515C03CF
:10056000F3506027F4505F23000E026A0322022238
:1005700057515D03F3505F27F4500322000E02220F
:1005800057515C03F3500326F4500222000E016A17
:10059000012259515B03F3505F27F4500322000EF0
:1005A0000222012258515B03F3500326F450022229
:1005B000000E012257515B03F3500226F450012232
:1005C000002A01BE05D05F37033602360136000629
:1005D000000E5FAF0AD0032A02220122015005E17A
:1005E000025003E1035001E1002A5EBF018E5EAFBD
:1005F000019E04D0006A016A026A036A00011200C7
:10060000080E016E050E006E002EFED78A929392A0
:10061000060E006E002EFED7010150378A90D8B02A
:100620009380D8A09390938281A2FED7012E01D00F
:1006300002D00001E7D7050E006E002EFED78A9289
:10064000939200009380060E006E002EFED7060ED9
:10065000006E002EFED7938281A2FED7016A060E9D
:10066000006E002EFED781B001808A9293928A900C
:100670009390000112009380050E006E002EFED7AD
:100680009382060E006E002EFED78A909390050E80
:10069000006E002EFED78A929392D00E0101506F09
:1006A0000001AEDF4EC150F1ABDF4FC150F1A8DF0A
:1006B00093900000938281A2FED7050E006E002E5B
:1006C000FED700D000009380050E006E002EFED7EE
:1006D0001200010EEA6E4E0EE96EEF500DE0060EAE
:1006E000016E006A002EFED7012EFBD77B0E006E36
:1006F000002EFED7EF2EF3D712006B0E01014E6FC6
:10070000800E4F6F0001B7DF640E01014E6F0001D4
:10071000E0DF6B0E01014E6F4F6B0001ACDF640E2A
:1007200001014E6F0001D5DF1A0E01014E6F010E5F
:100730004F6F0001A0DF0A0E01014E6F0001C9DFFB
:100740001B0E01014E6F4F6B000195DF0AEF07F0A2
:10075000080E0101516F00C052F19380060E006E29
:10076000002EFED7938281A2FED781B0D88081A0CF
:10077000D8900136050E006E002EFED793928A9215
:10078000512FEBD79380060E006E002EFED78A9075
:100790005251D8A493900000938281A2FED7050EF7
:1007A000006E002EFED78A929392060E006E002EE7
:1007B000FED78A909390000113EF04F09380050E0A
:1007C000006E002EFED79382060E006E002EFED71E
:1007D0008A909390050E006E002EFED78A92939217
:1007E000D00E0101506F00010BDF4EC150F108DF48
:1007F0009380050E006E002EFED79382060E006ECB
:10080000002EFED781A2FED78A909390050E006E2F
:10081000002EFED78A929392D10E0101506F0001F3
:10082000EFDE006A95D701C04FF1939000009382EC
:1008300081A2FED7050E006E002EFED700D000006C
:100840009380050E006E002EFED7036A01014FC192
:1008500001F003C002F0000112003B0E01014E6FD7
:100860000001ACDF01C039F13C0E01014E6F000107
:10087000A5DF01C03AF12BEF07F0450E01014E6FE5
:1008800000019CDF01C03FF1460E01014E6F0001E7
:1008900095DF01C040F12CEF07F001014E6B928211
:1008A00080B201D04E81928480B401D04E83928672
:1008B00080B601D04E854EC101F000012DEF07F04A
:1008C0008E0E006E51C101F050C102F0036A01AEFC
:1008D00005D0011E021E022A01E1012A015209E18E
:1008E00002C001F0026A080E005E015202E1006AD5
:1008F0000ED0D89001BE04D0023601360006F9D7DA
:10090000010151AF02D0000102D0019E000112008E
:1009100057C15EF101015B515E1B5EAF05D0D894FB
:10092000D89057BFD8802FD057C15EF15AC15FF120
:1009300056515F5F06E05EAF26D0D850010AD86EF0
:1009400022D05BC15FF157515F5F06E05EAF1BD005
:10095000D850010AD86E17D05CC15FF158515F5F63
:1009600006E05EAF10D0D850010AD86E0CD05DC141
:100970005FF159515F5F06E05EAF05D0D850010AC4
:10098000D86E01D0D890000112008E0E006E0101C9
:100990005651005E57C102F058C101F0028E00525C
:1009A00009E0D890025202E1015204E00232013221
:1009B000002EF7D757AF05D0011E021E012AD8B46A
:1009C000022A00011200B3C059F1B2C058F1B1C0FF
:1009D00057F1B0C056F151C15DF150C15CF14FC14A
:1009E0005BF14EC15AF191DD03C055F102C054F1E3
:1009F00001C053F100C052F152C100F053C101F0E7
:100A000054C102F055C103F0019E55C159F154C1C2
:100A100058F101C057F152C156F1B7DF01C083F060
:100A200055C159F154C158F153C157F152C156F152
:100A300001015D6B5C6B5B6B5A6B000169DF02E36C
:100A4000800E832783C001F012009EA8FED7AD6EF2
:100A50001200F86AD09E078EB8862A0EAF6E000E7E
:100A6000B06EA60EAC6E900EAB6E0A0E226ED70E56
:100A7000216E230E206E780E1F6E266A256A400EA8
:100A8000246E820E236EDC0E2A6E0F0E296E490E26
:100A9000286E800E276E7B0E2E6E140E2D6E080EA5
:100AA0002C6E840E2B6E326A316A0C0E306E840E00
:100AB0002F6E140E366EAE0E356E070E346E7E0E31
:100AC000336E3A6A396A1E0E386E860E376E3E6A8B
:100AD0003D6A3C6A800E3B6E426A416A406A820E01
:100AE0003F6E466A456A446A800E436E4A6A496AA6
:100AF000486A820E476E7B0E4E6E140E4D6E6E0E61
:100B00004C6E7E0E4B6E6F0E526E120E516E030EB9
:100B1000506E750E4F6E566A556A480E546E840EAE
:100B2000536E5A6A596A400E586E7F0E576E330ED6
:100B30005E6E5D6E6F0E5C6E820E5B6E626B616BE5
:100B40002C0E606F840E5F6E666B656B080E646FB3
:100B5000820E636F850E6A6FEB0E696F250E686FEC
:100B6000820E676F6E6B6D6B200E6C6F830E6B6FFA
:100B7000360E726FFA0E716F0E0E706F790E6F6F08
:100B8000766B756B746B710E736F2D0E7A6F230E0F
:100B9000796F7A0E786F770E776F420E7E6F600EE8
:100BA0007D6F650E7C6F770E7B6FD8820101556B70
:100BB000546B536B7F0E526F7EC059F17DC058F15C
:100BC0007CC057F17BC056F100019AEC00F003C0E5
:100BD00082F002C081F001C080F000C07FF0976B0E
:100BE000966B956B946B9B6B9A6B996B986B9F6BE9
:100BF0009E6B9D6B9C6BA36BA26BA16BA06BA76B99
:100C0000A66BA56BA46B0101556B546B536B7F0EE8
:100C1000526F22C059F121C058F120C057F11FC0B6
:100C200056F10001D6EC01F003C0ABF002C0AAF00F
:100C300001C0A9F000C0A8F00101596B586B576BB7
:100C4000800E566F26C05DF125C05CF124C05BF1BB
:100C500023C05AF1000159DC03C051F102C050F128
:100C600001C04FF100C04EF103C059F102C058F16C
:100C700001C057F100C056F12EC05DF12DC05CF1EE
:100C80002CC05BF12BC05AF140DC2AC055F129C0C1
:100C900054F128C053F127C052F103C059F102C0EA
:100CA00058F101C057F100C056F1D6EC01F003C075
:100CB000AFF002C0AEF001C0ADF000C0ACF0010179
:100CC000556B546B7E0E536F850E526F6AC059F18F
:100CD00069C058F168C057F167C056F10001D6EC01
:100CE00001F003C0B3F002C0B2F001C0B1F000C027
:100CF000B0F0B76BB66BB56BB46BBB6BBA6BB96B63
:100D0000B86BBF6BBE6BBD6BBC6BC36BC26BC16B97
:100D1000C06BC76BC66BC56BC46BCB6BCA6BC96B47
:100D2000C86BD36BD26BD16BD06BDB6BDA6BD96BCF
:100D3000D86BE36BE26BE16BE06BE76BE66BE56B4B
:100D4000E46BEB6BEA6BE96BE86BEF6BEE6BED6BF7
:100D5000EC6BF36BF26BF16BF06BF76BF66BF56BA7
:100D6000F46BFB6BFA6BF96BF86BFF6BFE6BFD6B57
:100D70007F0EFC6F0101036B026B016B006F05912D
:100D80000593059505970599096B086B076B066B2D
:100D90000D6B0C6B0B6B0A6B116B106B0F6B0E6B8F
:100DA000156B146B136B126B196B186B176B166B3F
:100DB0001D6B1C6B1B6B1A6B216B206B1F6B1E6BEF
:100DC000256B246B236B226B296B286B276B266B9F
:100DD0002D6B2C6B2B6B2A6B2E6B2F6B306B316B4F
:100DE000326B336B346B356B366B376B386B416BF7
:100DF000426B436B446B456B466B476B486B496B6F
:100E0000C150C00B0F09C16E070EB46E196A1A6A81
:100E1000000173D4C70ED56ED66A0101336B346BF3
:100E20007F0E0001846F0101356B366B0001856F09
:100E3000000E0609CA6EFE0ECB6E94948B940C0EB7
:100E4000BD6EB76AB66A94928B92BA6EF2869D8A2C
:100E5000C00EF21202D511D520D501C004F1036AEB
:100E600001013951E8BE03060001886F03C089F013
:100E700088C003F0000E886F03C089F0036A010187
:100E80003A51E8BE03060001882703508923036A0C
:100E900001013F51E8BE030600018A6F03C08BF0D9
:100EA0008AC003F0000E8A6F03C08BF0036A010151
:100EB0004051E8BE030600018A2703508B2301013D
:100EC0000451040B006E003200323F0E00160591F3
:100ED00000B005810451020B006ED89000320595D8
:100EE00000B005850451010B0593E8B005837F0E22
:100EF000D88000018455866F7F0ED8808555876F16
:100F00007F0E846F856F0101516B86C050F150BF19
:100F100051070001D5DC03C059F102C058F101C0EE
:100F200057F100C056F1AFC05DF1AEC05CF1ADC08D
:100F30005BF1ACC05AF185EC02F003C051F102C084
:100F400050F101C04FF100C04EF103C059F102C091
:100F500058F101C057F100C056F1ABC05DF1AAC015
:100F60005CF1A9C05BF1A8C05AF185EC02F003C0A6
:100F7000C3F002C0C2F001C0C1F000C0C0F0010166
:100F8000516B87C050F150BF5107000199DC03C07D
:100F900059F102C058F101C057F100C056F1AFC07D
:100FA0005DF1AEC05CF1ADC05BF1ACC05AF185EC57
:100FB00002F003C051F102C050F101C04FF100C076
:100FC0004EF103C059F102C058F101C057F100C001
:100FD00056F1ABC05DF1AAC05CF1A9C05BF1A8C03D
:100FE0005AF185EC02F003C0C7F002C0C6F001C0A0
:100FF000C5F000C0C4F0881D01014E6F0001891DBD
:1010000001014F6F4E2BD8B44F2B4FC151F14EC140
:1010100050F1000155DC03C059F102C058F101C084
:1010200057F100C056F176C05DF175C05CF174C037
:101030005BF173C05AF185EC02F003C08FF002C07F
:101040008EF001C08DF000C08CF08BC051F18AC0D1
:1010500050F136DC03C059F102C058F101C057F11C
:1010600000C056F17AC05DF179C05CF178C05BF1E7
:1010700077C05AF185EC02F003C093F002C092F001
:1010800001C091F000C090F08FC059F18EC058F1AE
:101090008DC057F18CC056F101015D6B5C6B340E55
:1010A0005B6F850E5A6F000185EC02F003C09FF064
:1010B00002C09EF001C09DF000C09CF093C059F1A9
:1010C00092C058F191C057F190C056F122C05DF125
:1010D00021C05CF120C05BF11FC05AF185EC02F029
:1010E000D892A7C055F1A6C054F1A5C053F1A4C031
:1010F00052F103C059F102C058F101C057F100C0CC
:1011000056F19AEC00F082C059F181C058F180C0CC
:1011100057F17FC056F103C05DF102C05CF101C020
:101120005BF100C05AF185EC02F003C051F102C03E
:1011300050F101C04FF100C04EF17EC059F17DC0A9
:1011400058F17CC057F17BC056F19FC05DF19EC045
:101150005CF19DC05BF19CC05AF185EC02F0D89225
:1011600051C155F150C154F14FC153F14EC152F12B
:1011700003C059F102C058F101C057F100C056F147
:101180009AEC00F003C0A3F002C0A2F001C0A1F0ED
:1011900000C0A0F0A3C0A7F0A2C0A6F0A1C0A5F017
:1011A000A0C0A4F0A3C059F1A2C058F1A1C057F14A
:1011B000A0C056F172C05DF171C05CF170C05BF10E
:1011C0006FC05AF185EC02F003C09BF002C09AF0A8
:1011D00001C099F000C098F0C3C055F1C2C054F1ED
:1011E000C1C053F1C0C052F103C159F102C158F15D
:1011F00001C157F100C156F1D6EC01F003C051F125
:1012000002C050F101C04FF100C04EF1C7C055F10E
:10121000C6C054F1C5C053F1C4C052F1FFC059F16A
:10122000FEC058F1FDC057F1FCC056F1D6EC01F0FC
:10123000D89251C155F150C154F14FC153F14EC133
:1012400052F103C059F102C058F101C057F100C07A
:1012500056F19AEC00F003C051F102C050F101C008
:101260004FF100C04EF103C055F102C054F101C06E
:1012700053F100C052F10101596B586B576B800E4E
:10128000566F0001D6EC01F003C0CBF002C0CAF0EB
:1012900001C0C9F000C0C8F00101596B586B576B11
:1012A000800E566FB7C05DF1B6C05CF1B5C05BF1A2
:1012B000B4C05AF1000188EC04F0D8A0FFD0E7C018
:1012C000EFF0E6C0EEF0E5C0EDF0E4C0ECF0D8825F
:1012D0005AC055F159C054F158C053F157C052F19A
:1012E000CBC059F1CAC058F1C9C057F1C8C056F1B6
:1012F0009AEC00F003C0E7F002C0E6F001C0E5F0B0
:1013000000C0E4F0E7C059F1E6C058F1E5C057F17C
:10131000E4C056F122C05DF121C05CF120C05BF158
:101320001FC05AF185EC02F0D892EBC055F1EAC02B
:1013300054F1E9C053F1E8C052F103C059F102C0C1
:1013400058F101C057F100C056F19AEC00F003C00B
:10135000EBF002C0EAF001C0E9F000C0E8F066C0BE
:1013600059F165C058F164C057F163C056F1EBC044
:101370005DF1EAC05CF1E9C05BF1E8C05AF188ECCC
:1013800004F009E366C0EBF065C0EAF064C0E9F080
:1013900063C0E8F015D0EBC059F1EAC058F1E9C0DC
:1013A00057F1E8C056F101015D6B5C6B5B6B5A6BEA
:1013B000000188EC04F004E3EB6BEA6BE96BE86B8B
:1013C00056C059F155C058F154C057F153C056F1A9
:1013D000EBC05DF1EAC05CF1E9C05BF1E8C05AF135
:1013E00085EC02F003C029F102C028F101C027F109
:1013F00000C026F14EC059F14DC058F14CC057F114
:101400004BC056F1E7C05DF1E6C05CF1E5C05BF1B1
:10141000E4C05AF185EC02F003C021F102C020F1D2
:1014200001C01FF100C01EF1D882E7C055F1E6C02F
:1014300054F1E5C053F1E4C052F1EFC059F1EEC0F0
:1014400058F1EDC057F1ECC056F19AEC00F052C0E3
:1014500059F151C058F150C057F14FC056F103C077
:101460005DF102C05CF101C05BF100C05AF185EC96
:1014700002F003C051F102C050F101C04FF100C0B1
:101480004EF103C059F102C058F101C057F100C03C
:1014900056F1ABC05DF1AAC05CF1A9C05BF1A8C078
:1014A0005AF185EC02F003C025F102C024F101C01D
:1014B00023F100C022F195968C8629D00101296B79
:1014C000286B276B266B216B206B1F6B1E6B256BAC
:1014D000246B236B226BD892B7C055F1B6C054F180
:1014E000B5C053F1B4C052F122C059F121C058F136
:1014F00020C057F11FC056F100019AEC00F003C064
:10150000B7F002C0B6F001C0B5F000C0B4F0D89298
:1015100021C155F120C154F11FC153F11EC152F137
:1015200025C159F124C158F123C157F122C156F107
:101530009AEC00F003C051F102C050F101C04FF12C
:1015400000C04EF1D89203C055F102C054F101C061
:1015500053F100C052F129C159F128C158F127C1F6
:1015600057F126C156F19AEC00F003C051F102C0C8
:1015700050F101C04FF100C04EF1D89203C055F1B7
:1015800002C054F101C053F100C052F15EC059F1E4
:101590005DC058F15CC057F15BC056F19AEC00F0A9
:1015A00003C097F002C096F001C095F000C094F01F
:1015B00062C059F161C058F160C057F15FC056F187
:1015C00097C05DF196C05CF195C05BF194C05AF193
:1015D00088EC04F008E362C097F061C096F060C048
:1015E00095F05FC094F097C059F196C058F195C03E
:1015F00057F194C056F15EC05DF15DC05CF15CC016
:101600005BF15BC05AF188EC04F008E35EC097F030
:101610005DC096F05CC095F05BC094F097C059F146
:1016200096C058F195C057F194C056F10A0E0101C9
:101630005D6FD70E5C6FA30E5B6F780E5A6F000163
:1016400085EC02F003C097F002C096F001C095F05F
:1016500000C094F0DFC0E3F0DEC0E2F0DDC0E1F0F6
:10166000DCC0E0F0D88297C055F196C054F195C027
:1016700053F194C052F19BC059F19AC058F199C0EE
:1016800057F198C056F19AEC00F003C0DFF002C0A9
:10169000DEF001C0DDF000C0DCF00101596B586BD9
:1016A000576B566BCBC05DF1CAC05CF1C9C05BF132
:1016B000C8C05AF1000188EC04F0D8A074D0CBC0A7
:1016C00059F1CAC058F1C9C057F1C8C056F101015B
:1016D0005D6B5C6B200E5B6F820E5A6F000188ECB5
:1016E00004F061E3010105A902D000015CD005A16D
:1016F00026D005B324D005A50FD0330E0001FF6F0F
:10170000FE6FFD6F7E0EFC6F660E0101036F026FB0
:10171000016F7F0E006F12D0CD0E0001FF6FCC0E57
:10172000FE6F4C0EFD6F7D0EFC6FCD0E0101036F41
:10173000CC0E026F0C0E016F800E006F33D005B11E
:1017400026D005A324D005A50FD0660E0001FF6F9B
:10175000FE6FFD6F7F0EFC6F330E0101036F026F92
:10176000016F7E0E006F12D0CD0E0001FF6FCC0E08
:10177000FE6F0C0EFD6F800EFC6FCD0E0101036F2E
:10178000CC0E026F4C0E016F7D0E006F0BD000016E
:10179000FF6BFE6BFD6B7F0EFC6F0101036B026B39
:1017A000016B006F3ED0CBC059F1CAC058F1C9C01F
:1017B00057F1C8C056F101015D6B5C6BA00E5B6F09
:1017C000810E5A6F000188EC04F021E30101596B8E
:1017D000586B576B800E566FB7C05DF1B6C05CF1A9
:1017E000B5C05BF1B4C05AF1000188EC04F00FE31E
:1017F000FF6BFE6BFD6B7F0EFC6F0101036B026BD9
:10180000016B006F058995948C840BD00001FF6BF0
:10181000FE6BFD6B7F0EFC6F0101036B026B016BB6
:10182000006F32C059F131C058F130C057F12FC0AC
:1018300056F1DFC05DF1DEC05CF1DDC05BF1DCC004
:101840005AF1000185EC02F003C009F102C008F171
:1018500001C007F100C006F1D882DFC055F1DEC03B
:1018600054F1DDC053F1DCC052F1E3C059F1E2C0E4
:1018700058F1E1C057F1E0C056F19AEC00F036C0E3
:1018800059F135C058F134C057F133C056F103C097
:101890005DF102C05CF101C05BF100C05AF185EC62
:1018A00002F003C051F102C050F101C04FF100C07D
:1018B0004EF103C059F102C058F101C057F100C008
:1018C00056F1ABC05DF1AAC05CF1A9C05BF1A8C044
:1018D0005AF185EC02F003C00DF102C00CF101C019
:1018E0000BF100C00AF12DC159F12CC158F12BC1E7
:1018F00057F12AC156F16AC05DF169C05CF168C058
:101900005BF167C05AF188EC04F064E367C000F053
:101910006851800A016E69C002F06AC003F06AC0B3
:1019200059F169C058F1E8CF57F167C056F12DC1A0
:101930005DF12CC15CF12BC15BF12AC15AF188EC3D
:1019400004F048E33AC059F139C058F138C057F1B2
:1019500037C056F122C05DF121C05CF120C05BF1BF
:101960001FC05AF185EC02F003C051F102C050F1E2
:1019700001C04FF100C04EF103C059F102C058F14F
:1019800001C057F100C056F1DFC05DF1DEC05CF16F
:10199000DDC05BF1DCC05AF185EC02F0D8922DC1BC
:1019A00055F12CC154F12BC153F12AC152F103C09E
:1019B00059F102C058F101C057F100C056F19AEC3C
:1019C00000F003C02DF102C02CF101C02BF100C0CA
:1019D0002AF167D06AC059F169C058F168C057F15F
:1019E00067C056F12DC15DF12CC15CF12BC15BF1DB
:1019F0002AC15AF188EC04F001E21BE1330E010127
:101A0000596F586F730E576F7E0E566F6AC05DF137
:101A100069C05CF168C05BF167C05AF1000185ECF8
:101A200002F003C02DF102C02CF101C02BF100C067
:101A30002AF167C000F06851800A016E69C002F0A7
:101A40006AC003F02DC159F12CC158F12BC157F1D7
:101A50002AC156F16AC05DF169C05CF1E8CF5BF163
:101A600067C05AF188EC04F001E21BE1330E01017A
:101A7000596F586FF30E576F7E0E566F6AC05DF147
:101A800069C05CF168C05BF167C05AF1000185EC88
:101A900002F003C02DF102C02CF101C02BF100C0F7
:101AA0002AF1D89209C155F108C154F107C153F187
:101AB00006C152F10DC159F10CC158F10BC157F1DA
:101AC0000AC156F19AEC00F003C051F102C050F186
:101AD00001C04FF100C04EF1D89203C055F102C0D1
:101AE00054F101C053F100C052F12DC159F12CC184
:101AF00058F12BC157F12AC156F19AEC00F003C0FE
:101B0000F3F002C0F2F001C0F1F000C0F0F06EC0DE
:101B100059F16DC058F16CC057F16BC056F1F3C06C
:101B20005DF1F2C05CF1F1C05BF1F0C05AF188ECFC
:101B300004F008E36EC0F3F06DC0F2F06CC0F1F099
:101B40006BC0F0F06BC000F06C51800A016E6DC08C
:101B500002F06EC003F0F3C059F1F2C058F1F1C0C9
:101B600057F1F0C056F16EC05DF16DC05CF1E8CF89
:101B70005BF16BC05AF188EC04F009E36BC0F0F044
:101B80006C51800AF16F6DC0F2F06EC0F3F0FFC0CF
:101B900059F1FEC058F1FDC057F1FCC056F1F3C039
:101BA0005DF1F2C05CF1F1C05BF1F0C05AF185EC7F
:101BB00002F003C0BFF002C0BEF001C0BDF000C023
:101BC000BCF003C159F102C158F101C157F100C184
:101BD00056F1F3C05DF1F2C05CF1F1C05BF1F0C011
:101BE0005AF185EC02F003C0BBF002C0BAF001C0AC
:101BF000B9F000C0B8F0D7C0DBF0D6C0DAF0D5C07D
:101C0000D9F0D4C0D8F0D882BFC055F1BEC054F1CD
:101C1000BDC053F1BCC052F1C7C059F1C6C058F1A4
:101C2000C5C057F1C4C056F19AEC00F003C0D7F01C
:101C300002C0D6F001C0D5F000C0D4F03EC059F1CA
:101C40003DC058F13CC057F13BC056F1D7C05DF1E3
:101C5000D6C05CF1D5C05BF1D4C05AF185EC02F07E
:101C600003C019F102C018F101C017F100C016F14C
:101C70001DC159F11CC158F11BC157F11AC156F1D0
:101C80006AC05DF169C05CF168C05BF167C05AF180
:101C900088EC04F064E367C000F06851800A016ECC
:101CA00069C002F06AC003F06AC059F169C058F116
:101CB000E8CF57F167C056F11DC15DF11CC15CF161
:101CC0001BC15BF11AC15AF188EC04F048E342C031
:101CD00059F141C058F140C057F13FC056F122C000
:101CE0005DF121C05CF120C05BF11FC05AF185ECB1
:101CF00002F003C051F102C050F101C04FF100C029
:101D00004EF103C059F102C058F101C057F100C0B3
:101D100056F1D7C05DF1D6C05CF1D5C05BF1D4C03F
:101D20005AF185EC02F0D8921DC155F11CC154F155
:101D30001BC153F11AC152F103C059F102C058F14D
:101D400001C057F100C056F19AEC00F003C01DF13C
:101D500002C01CF101C01BF100C01AF167D06AC0BB
:101D600059F169C058F168C057F167C056F11DC1FB
:101D70005DF11CC15CF11BC15BF11AC15AF188EC29
:101D800004F001E21BE1330E0101596F586F730E2D
:101D9000576F7E0E566F6AC05DF169C05CF168C016
:101DA0005BF167C05AF1000185EC02F003C01DF140
:101DB00002C01CF101C01BF100C01AF167C000F0A5
:101DC0006851800A016E69C002F06AC003F01DC14B
:101DD00059F11CC158F11BC157F11AC156F16AC023
:101DE0005DF169C05CF1E8CF5BF167C05AF188EC46
:101DF00004F001E21BE1330E0101596F586FF30E3D
:101E0000576F7E0E566F6AC05DF169C05CF168C0A5
:101E10005BF167C05AF1000185EC02F003C01DF1CF
:101E200002C01CF101C01BF100C01AF1D89219C107
:101E300055F118C154F117C153F116C152F11DC12A
:101E400059F11CC158F11BC157F11AC156F19AEC56
:101E500000F003C0FBF002C0FAF001C0F9F000C0CE
:101E6000F8F06AC059F169C058F168C057F167C00D
:101E700056F1FBC05DF1FAC05CF1F9C05BF1F8C04E
:101E80005AF188EC04F001E208E16AC0FBF069C095
:101E9000FAF068C0F9F067C0F8F067C000F0685168
:101EA000800A016E69C002F06AC003F0FBC059F1FC
:101EB000FAC058F1F9C057F1F8C056F16AC05DF1A7
:101EC00069C05CF1E8CF5BF167C05AF188EC04F0BF
:101ED00001E209E167C0F8F06851800AF96F69C052
:101EE000FAF06AC0FBF0FBC051F1FAC050F1F9C042
:101EF0004FF1F8C04EF1E3EC04F001C02EF1CFC079
:101F0000D3F0CEC0D2F0CDC0D1F0CCC0D0F0D882CA
:101F1000BBC055F1BAC054F1B9C053F1B8C052F1C9
:101F2000C3C059F1C2C058F1C1C057F1C0C056F189
:101F30009AEC00F003C0CFF002C0CEF001C0CDF0AB
:101F400000C0CCF046C059F145C058F144C057F12B
:101F500043C056F1CFC05DF1CEC05CF1CDC05BF1A6
:101F6000CCC05AF185EC02F003C011F102C010F1AF
:101F700001C00FF100C00EF115C159F114C158F1A3
:101F800013C157F112C156F16AC05DF169C05CF12D
:101F900068C05BF167C05AF188EC04F064E367C085
:101FA00000F06851800A016E69C002F06AC003F057
:101FB0006AC059F169C058F1E8CF57F167C056F1CE
:101FC00015C15DF114C15CF113C15BF112C15AF18D
:101FD00088EC04F048E34AC059F149C058F148C0C0
:101FE00057F147C056F122C05DF121C05CF120C01D
:101FF0005BF11FC05AF185EC02F003C051F102C041
:1020000050F101C04FF100C04EF103C059F102C0C0
:1020100058F101C057F100C056F1CFC05DF1CEC0FC
:102020005CF1CDC05BF1CCC05AF185EC02F0D892E6
:1020300015C155F114C154F113C153F112C152F13C
:1020400003C059F102C058F101C057F100C056F168
:102050009AEC00F003C015F102C014F101C013F1B5
:1020600000C012F167D06AC059F169C058F168C068
:1020700057F167C056F115C15DF114C15CF113C190
:102080005BF112C15AF188EC04F001E21BE1330E5E
:102090000101596F586F730E576F7E0E566F6AC0ED
:1020A0005DF169C05CF168C05BF167C05AF1000185
:1020B00085EC02F003C015F102C014F101C013F168
:1020C00000C012F167C000F06851800A016E69C05B
:1020D00002F06AC003F015C159F114C158F113C1DF
:1020E00057F112C156F16AC05DF169C05CF1E8CFE9
:1020F0005BF167C05AF188EC04F001E21BE1330E9A
:102100000101596F586FF30E576F7E0E566F6AC0FC
:102110005DF169C05CF168C05BF167C05AF1000114
:1021200085EC02F003C015F102C014F101C013F1F7
:1021300000C012F1D89211C155F110C154F10FC174
:1021400053F10EC152F115C159F114C158F113C127
:1021500057F112C156F19AEC00F003C0F7F002C03B
:10216000F6F001C0F5F000C0F4F06AC059F169C0A2
:1021700058F168C057F167C056F1F7C05DF1F6C07D
:102180005CF1F5C05BF1F4C05AF188EC04F001E2B7
:1021900008E16AC0F7F069C0F6F068C0F5F067C002
:1021A000F4F067C000F06851800A016E69C002F067
:1021B0006AC003F0F7C059F1F6C058F1F5C057F105
:1021C000F4C056F16AC05DF169C05CF1E8CF5BF123
:1021D00067C05AF188EC04F001E209E167C0F4F04D
:1021E0006851800AF56F69C0F6F06AC0F7F0F7C071
:1021F00051F1F6C050F1F5C04FF1F4C04EF1E3ECEF
:1022000004F001C02FF101012E517F080AE29692DD
:102210008D9296908D80800E2E5FD8902E35316FE6
:1022200007D096928D8296908D90D8902E35316FF2
:1022300031C1BBFF2F517F080AE295928C92959095
:102240008C80800E2F5FD8902F35306F07D09592FD
:102250008C8295908C90D8902F35306F30C1BEFF16
:10226000596B586B576B860E566F9BC05DF19AC0C9
:102270005CF199C05BF198C05AF1000185EC02F065
:1022800003C04DF102C04CF101C04BF100C04AF156
:102290004DC159F14CC158F14BC157F14AC156F1EA
:1022A00001015D6B5C6B800E5B6F860E5A6F0001E7
:1022B00088EC04F004E3800E0101416F25D0010198
:1022C000596B586B7E0E576F850E566F4DC15DF181
:1022D0004CC15CF14BC15BF14AC15AF1000188EC81
:1022E00004F005E37F0E0101416F0ED000014DC1E6
:1022F00059F14CC158F14BC157F14AC156F1C5ECE7
:1023000004F001C041F10101596B586B576B860E07
:10231000566F97C05DF196C05CF195C05BF194C0BB
:102320005AF1000185EC02F003C04DF102C04CF1FE
:1023300001C04BF100C04AF14DC159F14CC158F1F7
:102340004BC157F14AC156F101015D6B5C6B800EC8
:102350005B6F860E5A6F000188EC04F004E3800E78
:102360000101426F25D00101596B586B7E0E576FEA
:10237000850E566F4DC15DF14CC15CF14BC15BF1F7
:102380004AC15AF1000188EC04F005E37F0E010117
:10239000426F0ED000014DC159F14CC158F14BC1F3
:1023A00057F14AC156F1C5EC04F001C042F10101F8
:1023B000596B586B4C0E576F800E566FBFC05DF156
:1023C000BEC05CF1BDC05BF1BCC05AF1000185EC40
:1023D00002F003C051F102C050F101C04FF100C042
:1023E0004EF1D88203C055F102C054F101C053F13F
:1023F00000C052F10101596B586B576B7E0E566F3E
:1024000000019AEC00F003C04DF102C04CF101C094
:102410004BF100C04AF14DC159F14CC158F14BC1CB
:1024200057F14AC156F101015D6B5C6B800E5B6F29
:10243000860E5A6F000188EC04F004E3800E01015F
:10244000436F25D00101596B586B7E0E576F850E77
:10245000566F4DC15DF14CC15CF14BC15BF14AC19E
:102460005AF1000188EC04F005E37F0E0101436F8F
:102470000ED000014DC159F14CC158F14BC157F17B
:102480004AC156F1C5EC04F001C043F10101596B9A
:10249000586B4C0E576F800E566FC7C05DF1C6C0AB
:1024A0005CF1C5C05BF1C4C05AF1000185EC02F0DB
:1024B00003C051F102C050F101C04FF100C04EF114
:1024C000D88203C055F102C054F101C053F100C0DD
:1024D00052F10101596B586B576B7E0E566F00011C
:1024E0009AEC00F003C04DF102C04CF101C04BF179
:1024F00000C04AF14DC159F14CC158F14BC157F1DF
:102500004AC156F101015D6B5C6B800E5B6F860EFC
:102510005A6F000188EC04F004E3800E0101446F5F
:1025200025D00101596B586B7E0E576F850E566F83
:102530004DC15DF14CC15CF14BC15BF14AC15AF137
:10254000000188EC04F005E37F0E0101446F0ED01A
:1025500000014DC159F14CC158F14BC157F14AC16D
:1025600056F1C5EC04F001C044F10101596B586B00
:102570004C0E576F800E566FBBC05DF1BAC05CF158
:10258000B9C05BF1B8C05AF1000185EC02F003C09C
:1025900051F102C050F101C04FF100C04EF1D8829C
:1025A00003C055F102C054F101C053F100C052F113
:1025B0000101596B586B576B7E0E566F00019AECF8
:1025C00000F003C04DF102C04CF101C04BF100C05E
:1025D0004AF14DC159F14CC158F14BC157F14AC1B3
:1025E00056F101015D6B5C6B800E5B6F860E5A6F5E
:1025F000000188EC04F004E3800E0101456F25D052
:102600000101596B586B7E0E576F850E566F4DC189
:102610005DF14CC15CF14BC15BF14AC15AF1000163
:1026200088EC04F005E37F0E0101456F0ED0000138
:102630004DC159F14CC158F14BC157F14AC156F146
:10264000C5EC04F001C045F10101596B586B4C0E0B
:10265000576F800E566FC3C05DF1C2C05CF1C1C040
:102660005BF1C0C05AF1000185EC02F003C051F1EA
:1026700002C050F101C04FF100C04EF1D88203C03A
:1026800055F102C054F101C053F100C052F10101F3
:10269000596B586B576B7E0E566F00019AEC00F029
:1026A00003C04DF102C04CF101C04BF100C04AF132
:1026B0004DC159F14CC158F14BC157F14AC156F1C6
:1026C00001015D6B5C6B800E5B6F860E5A6F0001C3
:1026D00088EC04F004E3800E0101466F25D001016F
:1026E000596B586B7E0E576F850E566F4DC15DF15D
:1026F0004CC15CF14BC15BF14AC15AF1000188EC5D
:1027000004F005E37F0E0101466F0ED000014DC1BC
:1027100059F14CC158F14BC157F14AC156F1C5ECC2
:1027200004F001C046F10101596B586B4C0E576F14
:10273000800E566FCBC05DF1CAC05CF1C9C05BF1C1
:10274000C8C05AF1000185EC02F003C051F102C08B
:1027500050F101C04FF100C04EF1D88203C055F1D5
:1027600002C054F101C053F100C052F10101596B94
:10277000586B576B7E0E566F00019AEC00F003C049
:102780004DF102C04CF101C04BF100C04AF14DC106
:1027900059F14CC158F14BC157F14AC156F10101F1
:1027A0005D6B5C6B800E5B6F860E5A6F000188EC70
:1027B00004F004E3800E0101476F25D00101596B3D
:1027C000586B7E0E576F850E566F4DC15DF14CC133
:1027D0005CF14BC15BF14AC15AF1000188EC04F095
:1027E00005E37F0E0101476F0ED000014DC159F185
:1027F0004CC158F14BC157F14AC156F1C5EC04F038
:1028000001C047F10101596B586B080E576F820EDA
:10281000566FFBC05DF1FAC05CF1F9C05BF1F8C026
:102820005AF1000185EC02F003C051F102C050F1F1
:1028300001C04FF100C04EF1D88203C055F102C073
:1028400054F101C053F100C052F10101596B586BB2
:10285000576B7E0E566F00019AEC00F003C04DF1ED
:1028600002C04CF101C04BF100C04AF14DC159F119
:102870004CC158F14BC157F14AC156F101015D6B92
:102880005C6B800E5B6F860E5A6F000188EC04F063
:1028900004E3800E0101486F25D00101596B586B8C
:1028A0007E0E576F850E566F4DC15DF14CC15CF1C8
:1028B0004BC15BF14AC15AF1000188EC04F005E319
:1028C0007F0E0101486F0ED000014DC159F14CC17E
:1028D00058F14BC157F14AC156F1C5EC04F001C0A3
:1028E00048F10101596B586B080E576F820E566FF5
:1028F000F7C05DF1F6C05CF1F5C05BF1F4C05AF1D0
:10290000000185EC02F003C051F102C050F101C09A
:102910004FF100C04EF1D88203C055F102C054F10E
:1029200001C053F100C052F10101596B586B576B54
:102930007E0E566F00019AEC00F003C04DF102C00C
:102940004CF101C04BF100C04AF14DC159F14CC1ED
:1029500058F14BC157F14AC156F101015D6B5C6BF7
:10296000800E5B6F860E5A6F000188EC04F004E362
:10297000800E0101496F25D00101596B586B7E0E05
:10298000576F850E566F4DC15DF14CC15CF14BC167
:102990005BF14AC15AF1000188EC04F005E37F0EB7
:1029A0000101496F0ED000014DC159F14CC158F1E0
:1029B0004BC157F14AC156F1C5EC04F001C049F1D1
:1029C0000101000E05B7010E080DF3500427AA0EF1
:1029D000000125EC05F001014151000125EC05F055
:1029E00001014351000125EC05F0010144510001B2
:1029F00025EC05F001014551000125EC05F0010130
:102A00004651000125EC05F001014851000125EC7B
:102A100005F001014951000125EC05F001010451C7
:102A2000000125EC05F001014251000125EC05F003
:102A300001014751000125EC05F0D650C40805E21C
:102A400095948C8495968C8603D0D650C308FDE26D
:0C2A5000D66A2AEF07F0000E016E0300AA
:020000040030CA
:0E00000004CC3E1E0007A1000FC00FE00F4011
:00000001FF
;PIC18F4550
;CRC=A27C  CREATED="11-Apr-23 23:41"
