:0400000010EF02F00B
:08000800046ED8CF05F0E0CF33
:1000100006F00001E9CF0CF0EACF07F0E1CF08F0DD
:10002000E2CF09F0D9CF0AF0DACF0BF0F3CF12F01C
:10003000F4CF13F0FACF14F0F5CF15F0F6CF16F099
:10004000F7CF17F000C00EF001C00FF002C010F0A3
:1000500003C011F0F2A630EF00F0F2B09BEF00F019
:100060009DAA36EF00F09EBA5DEF00F00EC000F0E2
:100070000FC001F010C002F011C003F00CC0E9FF86
:1000800007C0EAFF078E08C0E1FF09C0E2FF0AC00F
:10009000D9FF0BC0DAFF12C0F3FF13C0F4FF14C086
:1000A000FAFF15C0F5FF16C0F6FF17C0F7FF0450A2
:1000B00006C0E0FF05C0D8FF10002C521CE19EAA2C
:1000C000FED7AECF1FF01F507F080AE296928D92A6
:1000D00096908D80800E1F5ED8901F34226E07D0C0
:1000E00096928D8296908D90D8901F34226E22C069
:1000F000BBFF010E2C6E2C2C1BD09EAAFED7AECFC0
:1001000020F020507F080AE295908C9095928C8286
:10011000800E205ED8902034216E07D095908C8080
:1001200095928C92D8902034216E21C0BEFF2C6A0B
:100130009E9A36EF00F081CF25F02550300B006EEF
:100140000038266E0F0E2616265027182A6E2A52C1
:100150000BE02A50030808E0D89027342618020B39
:1001600002E0230601D0232A26C027F02550C00B29
:10017000006E0038286E28322832030E28162850C8
:1001800029182B6E2B520BE02B50030808E0D89057
:1001900029342818020B02E0242A01D0240628C0A2
:1001A00029F0F29036EF00F0080E016E050E006E99
:1001B000002EFED78A929392060E006E002EFED776
:1001C00038368A90D8B09380D8A09390938281A239
:1001D000FED7012EEBD7050E006E002EFED78A92B9
:1001E000939200009380060E006E002EFED7060E3E
:1001F000006E002EFED7938281A2FED7016A060E02
:10020000006E002EFED781B001808A9293928A9070
:10021000939012009380050E006E002EFED79382FD
:10022000060E006E002EFED78A909390050E006E8B
:10023000002EFED78A929392D00E386EB5DF36C06C
:1002400038F0B2DF37C038F0AFDF93900000938210
:1002500081A2FED7050E006E002EFED700D0000052
:100260009380050E006E002EFED71200EA6A360E4D
:10027000E96EEF500DE0060E016E006A002EFED70B
:10028000012EFBD77B0E006E002EFED7EF2EF3D78C
:1002900012006B0E366E800E376EBCDF640E366E4B
:1002A000E5DF6B0E366E376AB5DF640E366EDEDF65
:1002B0001A0E366E010E376EADDF0A0E366ED6DFC1
:1002C0001B0E366E376AA6DF34EF02F0080E396E69
:1002D00000C03AF09380060E006E002EFED7938287
:1002E00081A2FED781B0D88081A0D8900136050EBA
:1002F000006E002EFED793928A92392EEBD7938010
:10030000060E006E002EFED78A903A50D8A4939025
:100310000000938281A2FED7050E006E002EFED74C
:100320008A929392060E006E002EFED78A909390CA
:10033000CBEF01F09380050E006E002EFED7938266
:10034000060E006E002EFED78A909390050E006E6A
:10035000002EFED78A929392D00E386E25DF36C0DB
:1003600038F022DF9380050E006E002EFED79382B8
:10037000060E006E002EFED781A2FED78A909390C3
:10038000050E006E002EFED78A929392D10E386E23
:100390000BDF006A9BD701C037F093900000938277
:1003A00081A2FED7050E006E002EFED700D0000001
:1003B0009380050E006E002EFED7036A37C001F051
:1003C00003C002F012003B0E366EB4DF01C02EF007
:1003D0003C0E366EAFDF01C02FF051EF02F0450E3C
:1003E000366EA8DF01C034F0460E366EA3DF01C0C2
:1003F00035F052EF02F0366A928280B201D0368038
:10040000928480B401D03682928680B601D0368440
:1004100036C001F053EF02F09EA8FED7AD6E120079
:10042000F86AD09E078EB8862A0EAF6E000EB06EA8
:10043000A60EAC6E900EAB6E1F6A206A216A226A0D
:10044000236A246A256A266A276A286A296A2A6A28
:100450002B6A2C6A2D6AC150C00B0F09C16E070EA2
:10046000B46E196A1A6A15D7C70ED56ED66A266A8F
:10047000276A7F0E236E286A296A246E000E0609F9
:10048000CA6EFE0ECB6E94948B940C0EBD6EB76A42
:10049000B66A94928B92BA6EF2869D8AC00EF21260
:1004A00092D79DD7A8D701C02DF0AA0EB5DF235053
:1004B000B3DF2450B1DF7F0E236E246E2E50ACDFED
:1004C0002F50AADF3450A8DF3550A6DF2D50A4DF0F
:1004D000D650C308FDE2D66AE3D7000E016E0300D2
:020000040030CA
:0E00000004CC3E1E0007A1000FC00FE00F4011
:00000001FF
;PIC18F4550
;CRC=9FFC  CREATED="26-Feb-23 15:44"
